:040000008A151E2F10
:08000800FF00030E8312031335
:10001000A0000A0EA100040EA2008A150A12382FB1
:10002000F908031D14280800F930FF3E031D1528A8
:100030000000F90B142808005F08003C0318600852
:1000400003190800E1010430610203183028E201BD
:100050004530620203182E28E20A2828E10A2328E4
:10006000DF080319E003DF031C2883120313C20017
:1000700003088301C3000A08C5008A01080083122F
:10008000031345088A004308830042080800B001B2
:10009000B301B4012C08B100B201B01908002D1C45
:1000A00057283108B3070318B40A3208B407AD0C57
:1000B0000310B10DB20DB00A4D28F201F301EF01AA
:1000C000F001F101711A08000310EF0DF00DEB0DB6
:1000D000EC0DF20DF30D6E087302031D71286D080F
:1000E0007202031C7A286D08F2026E08031CF303E7
:1000F000F3026F14F10A622883160313A101A2010F
:10010000A401A501A301231A08000310A40DA50D45
:10011000F50DF60DA10DA20D78082202031D9228FF
:1001200077082102031C9B287708A1027808031C8A
:10013000A203A2022414A30A832878141F30831672
:1001400003138500831205170613781CB52885173D
:100150000130F9001020781085197814851385175F
:100160000130F90010208513A52810308316850072
:1001700008009D208312051385137703031DC228F1
:100180000613C3280617F61B8515F61F8511761B67
:100190000515761F0511F61A8514F61E8510761AB8
:1001A0000514761E051085170130F90010208513FF
:1001B000F6198515F61D851176190515761D05119B
:1001C000F6188514F61C851076180514761C051093
:1001D00085170130F9001020851308006908F50023
:1001E0006A08F6006430F700F8017C2024088312C6
:1001F000CB006908EB006A08EC006430ED00EE010A
:100200005D207208E9007308EA006908F5006A08D1
:10021000F6000A30F700F8017C2024088312CC0095
:100220006908EB006A08EC000A30ED00EE015D2081
:100230007208E9007308EA006908CD000800EA01C5
:10024000003069020318EA0A6A08093C031C2C29D9
:1002500030306907EC000800EB010A30690203182E
:10026000EB0A6B080F3C031C392937306907EC0097
:1002700008003F30EC0008006608E9006708EA0063
:10028000EE206808803EF6000130F700B920CB0868
:10029000031D4F292030F600F701B92056294B08DD
:1002A000E9001F216C08F600F701B920CB08031DF7
:1002B0006129CC08031D61292030F600F701B9201F
:1002C00068294C08E9001F216C08F600F701B920E5
:1002D0004D08E9001F216C08F600F701B92008005D
:1002E0000C1E7029640899000800F5018313631837
:1002F00083176208750784008008031908008313B8
:10030000631883176208750784000008F600F70178
:10031000B920F50A762968108B1B68148316031719
:100320008C130C12831203130D12670803178D0030
:100330000313660803178C0083160C158B135530B6
:100340008D00AA308D008C14831203130D1EA42976
:100350000D12831603170C118312031368188B17E1
:10036000681C8B130800831603178C137208831202
:100370008D0083160C1483120C08F30008008312FE
:1003800003130613051385136430F900102003309E
:100390008500851785130A30F90010200330850089
:1003A000851785130130F90010203230F600013036
:1003B000F700B9202830F6000130F700B9200C30E2
:1003C000F6000130F700B9200130F600F700B9203F
:1003D0000800A601A701A801A901AA01A61A080000
:1003E000201C002A7908A7077A0803187A0FA807A3
:1003F0007B0803187B0FA9077C0803187C0FAA074A
:100400000310A30CA20CA10CA00C0310F90DFA0D03
:10041000FB0DFC0DA60AEE2983160313A001A30110
:10042000A40183126F088316A1007008A200F21FB6
:100430001F2AA017F109F209F10A0319F20A201A7A
:10044000312A711C292A2108A30722080318220F28
:10045000A4070310F20CF10C0310A10DA20DA00AC9
:100460001F2AA01F0800A309A409A30A0319A40AAC
:100470000800A401A501A601A701A801A901AA01DC
:10048000AB01FD01FD1A08000310A80DA90DAA0D6E
:10049000AB0DF90DFA0DFB0DFC0DA40DA50DA60D70
:1004A000A70D23082702031D5F2A22082602031D29
:1004B0005F2A21082502031D5F2A20082402031C4D
:1004C000702A2008A4022108031C210FA50222087B
:1004D000031C220FA6022308031C230FA7022814C3
:1004E000FD0A422A6408753A031DC62A5C08E60024
:1004F000E701E60A0319E70A6608E2076708031836
:10050000E30AE3076308033C031D882A6208E73C0B
:100510000318942A5C08E600E701E60A0319E70AD3
:100520006608E2006708E3006208E6006308E70087
:100530006508E8003C210618C62A5C08E600E701C9
:10054000E60A0319E70A6608E20767080318E30AE0
:10055000E3076308033C031DAF2A6208E73C031866
:10056000BB2A5C08E600E701E60A0319E70A660809
:10057000E2006708E3006208E6006308E700650838
:10058000E8003C216430F90010209B2A6408643A9A
:10059000031D0E2B6208003C6308031CD62A031DB2
:1005A000D62AE730E2000330E300E22A5C08E600E6
:1005B000E701E60A0319E70A6608E2026708031C76
:1005C000E303E3026208E6006308E7006508E80069
:1005D0003C2186180E2B6208003C6308031CF72A96
:1005E000031DF72AE730E2000330E300032B5C0829
:1005F000E600E701E60A0319E70A6608E20267086F
:10060000031CE303E3026208E6006308E7006508F1
:10061000E8003C216430F9001020E92A6208E60075
:100620006308E70008006208E9006308EA00EE20BA
:100630004B08E9001F216C08E40070214C08E90018
:100640001F216C08E40070214D08E9001F216C088F
:10065000E40070210930E4007021080083120313C4
:100660005A03031D382B4330F600F701B920080068
:100670004630F600F701B9200800E5016308E500FF
:100680006508E600620AE7008B216408E50065085A
:10069000E6006208E7008B21080069086B02F3009E
:1006A0006A0A03186A086C02F4006708EF00680819
:1006B000F0007308F1007408F2000C222308F9001E
:1006C0002408FA00A0017908F5007A08F600FA1F5C
:1006D0006F2BF509F609F50A0319F60AA00A831229
:1006E0006508F7006608F800E61F7D2BF709F80992
:1006F000F70A0319F80A8316A00A7C202408FB00D5
:100700002508FC00201C892BFB09FC09FB0A0319A6
:10071000FC0A7B0883126907FD007C08FE006A085A
:100720000318FE0AFE077D08ED007E08EE006D0846
:10073000EF006E08F00008006308753A031DA52B52
:10074000E20A0A3062020318E2016308643A031DF8
:10075000B12B6208003C031CB02B0930E200B12B26
:10076000E2036208E40008006208C6006308C700EC
:10077000A501A601C801A301A401A701A8010800C1
:10078000F301F401F501F601F701F801C030831619
:1007900003139F00613083129F00F2011030720238
:1007A0000318E62B0130F90010201F151F19D62B56
:1007B00083161E08F30083121E08F4007308F7075F
:1007C00074080318F80AF807F20ACE2B7708F90024
:1007D0007808FA00FB01FC01FA0CF90CFA0CF90C90
:1007E000FA0CF90CFA0CF90C0F30FA057908F30041
:1007F0007A08F4007B08F5007C08F6007308F9001D
:100800007408FA007508FB007608FC007030831647
:10081000A0001730A100A201A301E9212708FD00D3
:100820002808FE002908A4002A08A5007D08F30076
:100830007E08F4002408F5002508F6007308F90086
:100840007408FA007508FB007608FC000030A00070
:100850000430A100A201A30139222808F3002908CD
:10086000F4002A08F5002B08F6008312DA08031DAD
:100870008D2C7308F9007408FA007508FB007608DF
:10088000FC0009308316A000A101A201A301E92107
:100890002708FD002808FE002908A4002A08A50052
:1008A0007D08F3007E08F4002408F5002508F60012
:1008B0007308F9007408FA007508FB007608FC005C
:1008C0003230A000A101A201A30139222808F300BF
:1008D0002908F4002A08F5002B08F6002030F9005A
:1008E0007308F9077908F3000030F9007408031859
:1008F000740FF9077908F4000030F900750803183F
:10090000750FF9077908F5000030F900760803182B
:10091000760FF9077908F600A42C7308F90074081B
:10092000FA007508FB007608FC0006308316A0006C
:10093000A101A201A30139222808F3002908F4002B
:100940002A08F5002B08F6007308F9007408FA006D
:1009500008006D0AF200B32173080313EE006D085E
:10096000F200B32173080313EF006E08F0006F0864
:10097000F1007008F2007108F300080010308316CF
:1009800003139B00831285011030831685008312A8
:10099000BF01A301A401A701A8018330831686002B
:1009A000811383128601BF218030F6000130F700E9
:1009B000B9202030E400EB00F000F100F200F30079
:1009C0004130E5004730EC006430E7006530E90075
:1009D0006E30E6006F30ED007230E8007330EE00EC
:1009E000EF007730EA00F4010030F5006430E200F7
:1009F0007508E3007521C030F6000130F700B9201A
:100A00002030EA00EF002E30F2003130F3003230B7
:100A1000F1004F30EB005230E4006530E500ED00AE
:100A20006630E6006C30E7006E30EE006F30E800B4
:100A30007630EC00F0007730E900F4010030F5008A
:100A40006430E2007508E300752108308600D0307C
:100A5000DF000730E0001C20860124308316980058
:100A60009030831298003330831699005030F20092
:100A7000B32173080313DE005130F200B321730871
:100A80000313DA005230F200B32173080313DB00C2
:100A90005330F200B32173080313DC005430F2002A
:100AA000B32173080313DD000800F201F501F6011C
:100AB0006708F3006808F400721A0800691C662DC4
:100AC0007308F50774080318740FF6070310EA0C8F
:100AD000E90C0310F30DF40DF20A5C2DF201F401A0
:100AE000F301F31908000310F40DE50DF20D66088B
:100AF0007202031C7D2DF2007414F30A712D703004
:100B0000831603138F00BE24101690168B170B1735
:100B1000013083168C00831290109E308F00573066
:100B20008E000130F600F700B9208330831686006E
:100B3000831210140330D4001430D5000330D700D2
:100B4000D0016E30CE00CF01D101D2012308BD000B
:100B50002408BE00861FB72D061CB72D861CB72D96
:100B60000130D0006E30CE003230F900102006186F
:100B7000D22D5003031DD22D7530CE00D0010618A2
:100B8000D02D02303D07E2003E08E3000318E30ADF
:100B900063082402031DCE2D62082302031CBF2D0F
:100BA0000130CF008618ED2D5003031DED2D64306C
:100BB000CE00D0018618EB2D02303D07E2003E0842
:100BC000E3000318E30A63082402031DE92D620809
:100BD0002302031CDA2D0130CF00861B082E5003A0
:100BE000031D082E7330CE00D001861B062E023066
:100BF0003D07E2003E08E3000318E30A630824020D
:100C0000031D042E62082302031CF52D0130CF00C2
:100C100002303D07DF003E08E0000318E00A6008EC
:100C20002402031D152E5F082302031C192E013018
:100C3000D1005903031D732ED9012308E2002408B3
:100C4000E30013233B08E2003C08E3001323C02326
:100C500079088312E2007A08E30013232908AB0025
:100C60002A08AC00C02379088312A9007A08AA00D8
:100C7000C80803193F2E3130E4007021422E303075
:100C8000E40070210D30E40070210A30E40070218E
:100C90004703031D542EC02379088312E6007A0807
:100CA000E7000C30E8003C214603031D622E2308B8
:100CB000E6002408E7000230E8003C21A70A0319F7
:100CC000A80A692EC608031D692E2508A300260858
:100CD000A4004803031D712E06165B030319861535
:100CE000732E061286115408003A03198F2E013A0A
:100CF0000319832F033A8A1503197A28013A031935
:100D00001A29073A03191A29093A0319C22B033A77
:100D10000319C22B0B3A03193B2D8A11A32DD508B9
:100D20000319D82E0130F600F700B9204D30E40049
:100D30006F30E5006430E6006530E7003A30E800E7
:100D4000E9010030EA006430E2006A08E30075213E
:100D5000C030F6000130F700B9202030E600E7008F
:100D6000E900EA00EC00ED002F30F0004D30E40027
:100D7000E5004E30EE005330F1006530F2006C308B
:100D8000F3007830E800EB00EF00F4010030F500EC
:100D90006430E2007508E3007521D5015703D600E1
:100DA0000130CF007330CE00D101E201E301B42362
:100DB0004F03031DA32D4E08733A031DA32D5103AA
:100DC000031DE52E5608D400A32DD60A5608D700D9
:100DD0008730F6000130F700B9205608063A031DA7
:100DE000F32E0130D6005608013A0319042F033AB6
:100DF00003191C2F013A0319372F073A0319512FF2
:100E0000013A03196B2FA32D2030E400E500E60022
:100E10004D30E7006130E800EB006C30EC006E30E4
:100E2000E9007530EA00ED010030EE006430E200C8
:100E30006E08E3007521A32D5330E4006530E50012
:100E40006D30E6006930E7002D30E8004130E90000
:100E50007530EA007430EB006F30EC00ED010030CB
:100E6000EE006430E2006E08E3007521A32D20300F
:100E7000EB003130EC005030E4006130E9006730C5
:100E8000E7006D30EA006F30E6007230E500E80000
:100E9000ED010030EE006430E2006E08E3007521E1
:100EA000A32D2030EB003230EC005030E4006130F4
:100EB000E9006730E7006D30EA006F30E60072301D
:100EC000E500E800ED010030EE006430E2006E085D
:100ED000E3007521A32D2030E400E500E600E700E3
:100EE0005330E8006530E9007430EA007530EB00FB
:100EF0007030EC00ED010030EE006430E2006E086E
:100F0000E3007521A32D55030319D52F8030F6007A
:100F10000130F700B9202030E400E500E600E700EA
:100F2000EA00EB00EC00ED00EE00EF003030E800EE
:100F3000F000F100F2007330E900F3010030F4003A
:100F40006430E2007408E30075212E23C030F600FF
:100F50000130F700B9202030E600EA00EF00F00091
:100F60002D30EC002F30E800F1004130E500453035
:100F7000F2004D30E4005230E700E900EB006E3043
:100F8000EE006F30ED007830F300F4010030F50032
:100F90006430E2007508E30075210130D500E201FC
:100FA0000130E300B423BB01BC014F03031DA32D9B
:100FB0004E08753A0319E52F113A8A1503191C28B2
:100FC000173A031975288A11A32D5103031DEB2F1E
:100FD0001430D500A32DC6088A15031D0628250840
:100FE000A3002608A400C330F6000130F7008A11E0
:100FF000B9205330E400E5010030E6006430E2003F
:101000006608E30075210130C600A32D2308A50062
:101010002408A600C330F6000130F7008A11B92079
:101020005230E400E5010030E6006430E20066087A
:10103000E3007521C601A32DC808031D4C2801300B
:10104000C800C930F6000130F7008A11B9206F30AE
:10105000E4006630E500E600E7010030E8006430B7
:10106000E2006808E30075218730F6000130F700E0
:10107000B9205230E4004530E5004C30E600413004
:10108000E7005930E800E9010030EA006430E2008E
:101090006A08E3007521A32DC801C930F6000130AC
:1010A000F7008A11B9206F30E4006E30E50020307F
:1010B000E600E7010030E8006430E2006808E30081
:1010C00075218730F6000130F700B9202030E400A8
:1010D000E500E600E700E800E9010030EA006430DE
:1010E000E2006A08E3007521A32D51030319D4011E
:1010F0008A11A32D5508023A0319DE288030F60024
:101100000130F7008A11B9202030E400E500E60044
:10111000E700E800E900EA003030EB00EC00ED0009
:10112000EE010030EF006430E2006F08E30075214B
:101130002E232030E4003030E500E600E700E8012F
:101140000030E9006430E2006908E30075212E23D5
:10115000C030F6000130F700B9202030E600EA0088
:10116000EE00EF00F0002F30E800EC00F10041301D
:10117000E5004430EB00ED004530F2005330E40070
:101180005530E700E9007830F300F4010030F50055
:101190006430E2007508E3007521C02379088312EA
:1011A000E6007A08E7000C30E8003C210230D50068
:1011B000E2010130E300B423BB01BC014F038A15F7
:1011C000031D00294E08753A0319ED28113A031939
:1011D000ED28173A0319FD2800293B08E2003C08D6
:1011E000E3004E08E4000730E5008A117222660829
:1011F000BB006708BC008A15002951030319D401FC
:101200003B08E6003C08E7000730E8008A113C2173
:10121000C02383123C087A028A15031D11293B085A
:101220007902031817290130C8008A11A32DC801BB
:101230008A11A32D5508033A0319EB295508043ADE
:101240000319EB298030F6000130F7008A11B9202C
:101250002030E500EA003030E400E600E700E80076
:10126000EB00EC00ED007330E900EE010030EF0020
:101270006430E2006F08E30075212E232030E40083
:101280003030E500E600E700E8010030E9006430B6
:10129000E2006908E30075212E23C030F60001301A
:1012A000F700B9202030E600EA00EE002F30E80019
:1012B000F1003130E5004530EF00F2004A30EB003C
:1012C0005030E4005230E700E9006430F0006D3047
:1012D000EC007030ED007830F300F4010030F500E0
:1012E0006430E2007508E30075215408033A8A155A
:1012F000031DA1292030E600EA00EE002F30E800AF
:10130000F1003130E5004530EF00F2004A30EB00EB
:101310005030E4005230E700E9006430F0006D30F6
:10132000EC007030ED007830F300F4010030F5008F
:101330006430E2007508E3008A1175210330D5009E
:10134000C9015408043A8A15031DBA29C130F600B0
:101350000130F7008A11B9203230E400E501003095
:10136000E6006430E2006608E30075210430D50031
:101370002830C900E2010130E3008A11B423C4011E
:101380004908C0004008ED00A9247208B5007308A0
:10139000B600A701A80102304007ED00A924720899
:1013A000B7007308B8003508E6003608E7000230D9
:1013B000E8003C213708E6003808E7000730E8007D
:1013C0003C211930B900BA01DA088A15031DEB294E
:1013D0004E30B900BA014603031D0E2B2808360211
:1013E000031DF429270835020318302AC40AA7016F
:1013F000A8014408E500E601E50DE60DE50DE60D62
:10140000FC30E50549086507C0004008ED008A1179
:10141000A9247208B5007308B6003708B900380867
:10142000BA0002304007ED00A9247208B700730823
:10143000B8008030F6000130F700B9204408E90018
:101440001F216C08F600F701B920B5088A15031DA5
:10145000302AB608031D302AC601C8011430D50051
:101460003508E5003608E6002708E7002808E80008
:101470003908E9003A08EA003708EB003808EC00C0
:101480008A114D236F08BB007008BC003B08E600C2
:101490003C08E7000730E8003C215E08E20003104A
:1014A000620C2707E3002808E4000318E40A640834
:1014B00036028A15031D5E2A63083502031C822A40
:1014C0003508E5003608E6005E08ED0003106D0CF7
:1014D0002707EE002808EF000318EF0A6E08E70060
:1014E0006F08E8003908E9003A08EA003708EB001D
:1014F0003808EC008A114D236F08B1007008B20063
:101500008A15B32A04304007ED008A11A924720815
:10151000E5007308E6005E08EF000310EF0C2708F3
:101520003502ED00280A031828083602EE006D087F
:101530006F02F0006E09F1000318F10A7008E7006D
:101540007108E8003708E9003808EA00063040076B
:10155000ED00A9247208EB007308EC004D236F081E
:10156000B1007008B2008A11C02383125E08E50042
:101570000630E6006E257408ED002B082902EB000A
:101580002C0A03182C082A02EC006D08E700E80179
:101590006B08E9006C08EA0055257508EE0076082E
:1015A000EF006E087907F0006F08F1007A08031861
:1015B000F10AF1077008AF007108B000C023831270
:1015C0003B087902E7003C0A03183C087A02E8006D
:1015D00031082F02E500320A031832083002E60013
:1015E00065086707E9006608EA0068080318EA0A60
:1015F000EA076908B3006A08B4008030E5003408DF
:10160000803A65023308B4080319003C8A15031CAC
:101610000C2B0130C800122BC801122B2508A30087
:101620002608A4004F038A11031DA32D4E08753A06
:101630008A150319232B113A03195B2B173A031947
:10164000B62B8A11A32D5103031D2A2B1430D5006C
:101650008A11A32DC608031D442B2508A3002608C4
:10166000A400C330F6000130F7008A11B9205330CE
:10167000E400E5010030E6006430E2006608E300C3
:1016800075210130C600A32D2308A5002408A6005B
:10169000C330F6000130F7008A11B9205230E4005F
:1016A000E5010030E6006430E2006608E3007521E1
:1016B000C601C801A32DA501A601A301A401C33041
:1016C000F6000130F7008A11B9205230E400E5013C
:1016D0000030E6006430E2006608E3007521C801CE
:1016E000C601C40A4408E200E301E20DE30DE20D85
:1016F000E30DFC30E20549086207C0004008ED0038
:10170000A9247208B5007308B600B5088A15031D30
:101710008E2BB608031D8E2B1430D5003708B90068
:101720003808BA0002304007ED008A11A924720877
:10173000B7007308B8003508E6003608E700023045
:10174000E8003C213708E6003808E7000730E800E9
:101750003C218030F6000130F700B9204408E90050
:101760001F216C08F600F701B920A32D5408D500FD
:101770005103031DBE2BD4018A11A32D0A30D407B7
:101780008A11A32D55080D3A03194D2C55080E3A10
:1017900003194D2CC030F6000130F7008A11B92032
:1017A0002030E600EA00EE002F30E800EC00F10007
:1017B0003130E5004430EB00ED004530E400F2004C
:1017C0004E30EF005530E700E9007830F000F300CC
:1017D000F4010030F5006430E2007508E300752183
:1017E00054080D3A8A15031DF82B0D30D500C90198
:1017F00054080E3A031D122CC130F6000130F700D8
:101800008A11B9203230E4002030E500E6010030D2
:10181000E7006430E2006708E30075210E30D50070
:101820002830C900E201E3018A11B423C401490848
:10183000C0004008ED00A9247208B5007308B60086
:1018400002304007ED00A9247208B7007308B80001
:101850008030F6000130F700B9204408E9001F216C
:101860006C08F600F701B9203508E6003608E700F5
:101870000230E8003C213708E6003808E70007306E
:10188000E8003C218030F6000130F700B9200F302D
:10189000F6000130F700B920CA014F038A11031D79
:1018A000A32D4A08003A8A1503195D2C053A03193D
:1018B000AF2C0F3A0319DB2C0C2D4408E2004E0824
:1018C000E3008A119C236408C4004408E200E30199
:1018D000E20DE30DE20DE30DFC30E205490862077D
:1018E000C0004008ED00A9247208B5007308B600D6
:1018F000B5088A15031D802CB608031D802CC40171
:1019000002304007ED008A11A9247208B70073085D
:10191000B8003508E6003608E7000230E8003C2150
:101920003708E6003808E7000730E8003C2180303F
:10193000F6000130F700B9204408E9001F216C08C7
:10194000F600F701B9208030F6000130F700B92029
:101950000F30F6000130F700B9208A150C2D4E0823
:10196000753A0319B72C4E08643A031DC52C350887
:10197000E2003608E3004E08E4000230E5008A1178
:1019800072226608B5006708B6004408E200E30169
:10199000E20DE30DE20DE30DFC30E20549086207BC
:1019A000C0004008E2003508E3003608E4008A1170
:1019B0003D238A150C2D4E08753A0319E32C4E0869
:1019C000643A031DF12C3708E2003808E3004E08A2
:1019D000E4000730E5008A1172226608B700670844
:1019E000B8004408E200E301E20DE30DE20DE30D6F
:1019F000FC30E20549086207E4006308E5000318CB
:101A0000E50A02306407C0004008E2003708E3003E
:101A10003808E4008A113D234E08733A8A11031DE9
:101A2000A32D51038A15031D202D5408D5000A301B
:101A3000D4020C30F6000130F7008A11B920A32D32
:101A40004A08053A031D272D0A30CA002E2DCA0860
:101A5000031D2D2D0530CA002E2DCA014A08803ED7
:101A6000F6000130F7008A11B9200F30F60001307E
:101A7000F700B920A32D5508053A0319712DC03080
:101A8000F6000130F7008A11B9202030E600E900A5
:101A9000EA00ED00EE002F30F1004430EB0045305D
:101AA000F2004E30EF005330E4005530E500E7001F
:101AB0006E30EC007030E8007830F000F300F40194
:101AC0000030F5006430E2007508E3007521053050
:101AD000D500E201E301B4230130D800CF006E301D
:101AE000CE004F038A11031DA32D4E08733A8A15A9
:101AF0000319812D173A03198E2D113A03198E2DD2
:101B0000D42D5103031D862DD401D42DD80A580895
:101B1000063A031DD42D0130D800D42D58084F3E6D
:101B2000C0004008F2008A11B32173080313E100DA
:101B300058038A15031DAB2D4E08753A0319E10AA7
:101B40004E08643A0319E1036108E600E7010C302E
:101B5000E8008A113C215808023A8A150319B42D6D
:101B60005808033A031DBE2D6103031DB92DE10181
:101B7000BE2DE108031DBE2D0130E1005808043AD6
:101B80000319C62D5808053A031DCE2D6108E20041
:101B90004E08E3008A119C236408E1006108E60016
:101BA0004008E7008A118B2158084F3EC0004008CA
:101BB000F2008A11B32173080313E1008030F600AC
:101BC0000130F700B9205808013A8A150319F62D9B
:101BD000033A0319232E013A03194F2E073A03192A
:101BE0009B2E013A0319DE2E8A11A32D6108DE0017
:101BF0002030E800EE00F000F100F2003D30EF0090
:101C00004330E9005430E4006530E7006930E50016
:101C10006D30E6006E30EB006F30EA007330EC00A0
:101C2000F3007430ED00F4010030F5006430E200A0
:101C30007508E3008A1175216108E600E7010C30A0
:101C4000E8003C21A32D6108DA002030E800EE0016
:101C5000EF00F100F2003D30F0005430E400553068
:101C6000E9006530E5006930EB006D30E6006E306C
:101C7000EA007030E7007330ED007430EC00F301DF
:101C80000030F4006430E2007408E3008A1175212A
:101C90008F30F6000130F700B9202E23A32D610804
:101CA000DB002030E900ED00EE003D30EF00443075
:101CB000EC004530EB004C30EA005230E40061307B
:101CC000E7006530E5006C30E6007930E800F001AF
:101CD0000030F1006430E2007108E3008A117521E0
:101CE0008C30F6000130F700B92061038A15031D1E
:101CF0008A2E2030E400E7004E30E6004F30E50049
:101D0000E8010030E9006430E2006908E3008A116C
:101D10007521A32D2030E4004F30E5004630E60069
:101D2000E700E8010030E9006430E2006908E30000
:101D30008A117521A32D6108DC002030EA00EF0034
:101D4000F100F200F3002F30E6003D30F0004930A2
:101D5000EB005430E4006330ED006D30E500E80046
:101D60006E30EC007030E9007230EE007430E70045
:101D7000F4010030F5006430E2007508E3008A11D8
:101D800075218E30F6000130F700B9206108093A5C
:101D90008A15031DD52E3130F600F7018A11B920BE
:101DA0003030F600F701B920A32D610AE9008A114D
:101DB0001F216C08F600F701B920A32D6108DD0092
:101DC0002030E900ED00EE00F000F100F200F30039
:101DD0003D30EF004330E4006130EB006330E7005A
:101DE000EA006B30E8006C30E500EC006F30E60094
:101DF000F4010030F5006430E2007508E3008A1158
:101E000075218E30F6000130F700B9206108093ADB
:101E10008A15031D152F3130F600F7018A11B920FC
:101E20003030F600F701B920A32D610AE9008A11CC
:101E30001F216C08F600F701B920A32D83120313AC
:101E4000C101A901AA01AB01AC01AD01AE01AF0115
:101E5000B001B101B201BB01BC01C601C701C8019B
:101E6000BD01BE01D201D301D9018A110A127F2D11
:101E70008A1135208A150C1C672F10109E308F0098
:101E80005D088316AC001430AD008A11472033087A
:101E9000AE003408AF002E08573E83128E00BF0AF2
:101EA0003F080A3A8A15031D5B2FBF01A30A0319D5
:101EB000A40A0130D90003302402031D612FE7304A
:101EC0002302031C652FA301A4010C1010148A1116
:101ED0003F20220E8400210E8A00200E8300FF0E78
:041EE0007F0E090068
:02400E00303F41
:1042000000000F000000280000005A0000008C0091
:1042100000005A000000C80000001E000000F0006E
:1042200000003C0000008C000000000000000000C6
:10423000000000000000000000000000000000007E
:10424000000000000000000000000000000000006E
:1042500000000F000000280000005A000000960037
:1042600000005A000000B40000001E000000D7004B
:1042700000003C000000960000000000000000006C
:10428000000000000000000000000000000000002E
:10429000000000000000000000000000000000001E
:1042A00014000100010004000400000000000000F0
:1042B00000000000000000000000000000000000FE
:0842C0000000000000000000F6
:00000001FF
