:040000008A151A2F14
:08000800FF00030E8312031335
:10001000A0000A0EA100040EA2008A150A12342FB5
:10002000F908031D14280800F930FF3E031D1528A8
:100030000000F90B142808005F08003C0318600852
:1000400003190800E1010430610203183028E201BD
:100050004530620203182E28E20A2828E10A2328E4
:10006000DF080319E003DF031C2883120313C20017
:1000700003088301C3000A08C5008A01080083122F
:10008000031345088A004308830042080800B001B2
:10009000B301B4012C08B100B201B01908002D1C45
:1000A00057283108B3070318B40A3208B407AD0C57
:1000B0000310B10DB20DB00A4D28F201F301EF01AA
:1000C000F001F101711A08000310EF0DF00DEB0DB6
:1000D000EC0DF20DF30D6E087302031D71286D080F
:1000E0007202031C7A286D08F2026E08031CF303E7
:1000F000F3026F14F10A622883160313A101A2010F
:10010000A401A501A301231A08000310A40DA50D45
:10011000F50DF60DA10DA20D78082202031D9228FF
:1001200077082102031C9B287708A1027808031C8A
:10013000A203A2022414A30A832878141F30831672
:1001400003138500831205170613781CB52885173D
:100150000130F9001020781085197814851385175F
:100160000130F90010208513A52810308316850072
:1001700008009D208312051385137703031DC228F1
:100180000613C3280617F61B8515F61F8511761B67
:100190000515761F0511F61A8514F61E8510761AB8
:1001A0000514761E051085170130F90010208513FF
:1001B000F6198515F61D851176190515761D05119B
:1001C000F6188514F61C851076180514761C051093
:1001D00085170130F9001020851308006908F50023
:1001E0006A08F6006430F700F8017C2024088312C6
:1001F000CB006908EB006A08EC006430ED00EE010A
:100200005D207208E9007308EA006908F5006A08D1
:10021000F6000A30F700F8017C2024088312CC0095
:100220006908EB006A08EC000A30ED00EE015D2081
:100230007208E9007308EA006908CD000800EA01C5
:10024000003069020318EA0A6A08093C031C2C29D9
:1002500030306907EC000800EB010A30690203182E
:10026000EB0A6B080F3C031C392937306907EC0097
:1002700008003F30EC0008006608E9006708EA0063
:10028000EE206808803EF6000130F700B920CB0868
:10029000031D4F292030F600F701B92056294B08DD
:1002A000E9001F216C08F600F701B920CB08031DF7
:1002B0006129CC08031D61292030F600F701B9201F
:1002C00068294C08E9001F216C08F600F701B920E5
:1002D0004D08E9001F216C08F600F701B92008005D
:1002E0000C1E7029640899000800F5018313631837
:1002F00083176208750784008008031908008313B8
:10030000631883176208750784000008F600F70178
:10031000B920F50A762968108B1B68148316031719
:100320008C130C12831203130D12670803178D0030
:100330000313660803178C0083160C158B135530B6
:100340008D00AA308D008C14831203130D1EA42976
:100350000D12831603170C118312031368188B17E1
:10036000681C8B130800831603178C137208831202
:100370008D0083160C1483120C08F30008008312FE
:1003800003130613051385136430F900102003309E
:100390008500851785130A30F90010200330850089
:1003A000851785130130F90010203230F600013036
:1003B000F700B9202830F6000130F700B9200C30E2
:1003C000F6000130F700B9200130F600F700B9203F
:1003D0000800A601A701A801A901AA01A61A080000
:1003E000201C002A7908A7077A0803187A0FA807A3
:1003F0007B0803187B0FA9077C0803187C0FAA074A
:100400000310A30CA20CA10CA00C0310F90DFA0D03
:10041000FB0DFC0DA60AEE2983160313A001A30110
:10042000A40183126F088316A1007008A200F21FB6
:100430001F2AA017F109F209F10A0319F20A201A7A
:10044000312A711C292A2108A30722080318220F28
:10045000A4070310F20CF10C0310A10DA20DA00AC9
:100460001F2AA01F0800A309A409A30A0319A40AAC
:100470000800A401A501A601A701A801A901AA01DC
:10048000AB01FD01FD1A08000310A80DA90DAA0D6E
:10049000AB0DF90DFA0DFB0DFC0DA40DA50DA60D70
:1004A000A70D23082702031D5F2A22082602031D29
:1004B0005F2A21082502031D5F2A20082402031C4D
:1004C000702A2008A4022108031C210FA50222087B
:1004D000031C220FA6022308031C230FA7022814C3
:1004E000FD0A422A6408753A031DC62A5C08E60024
:1004F000E701E60A0319E70A6608E2076708031836
:10050000E30AE3076308033C031D882A6208E73C0B
:100510000318942A5C08E600E701E60A0319E70AD3
:100520006608E2006708E3006208E6006308E70087
:100530006508E8003C210618C62A5C08E600E701C9
:10054000E60A0319E70A6608E20767080318E30AE0
:10055000E3076308033C031DAF2A6208E73C031866
:10056000BB2A5C08E600E701E60A0319E70A660809
:10057000E2006708E3006208E6006308E700650838
:10058000E8003C216430F90010209B2A6408643A9A
:10059000031D0E2B6208003C6308031CD62A031DB2
:1005A000D62AE730E2000330E300E22A5C08E600E6
:1005B000E701E60A0319E70A6608E2026708031C76
:1005C000E303E3026208E6006308E7006508E80069
:1005D0003C2186180E2B6208003C6308031CF72A96
:1005E000031DF72AE730E2000330E300032B5C0829
:1005F000E600E701E60A0319E70A6608E20267086F
:10060000031CE303E3026208E6006308E7006508F1
:10061000E8003C216430F9001020E92A6208E60075
:100620006308E70008006208E9006308EA00EE20BA
:100630004B08E9001F216C08E40070214C08E90018
:100640001F216C08E40070214D08E9001F216C088F
:10065000E40070210930E4007021080083120313C4
:100660005A03031D382B4330F600F701B920080068
:100670004630F600F701B9200800E5016308E500FF
:100680006508E600620AE7008B216408E50065085A
:10069000E6006208E7008B21080069086B02F3009E
:1006A0006A0A03186A086C02F4006708EF00680819
:1006B000F0007308F1007408F2000C222308F9001E
:1006C0002408FA00A0017908F5007A08F600FA1F5C
:1006D0006F2BF509F609F50A0319F60AA00A831229
:1006E0006508F7006608F800E61F7D2BF709F80992
:1006F000F70A0319F80A8316A00A7C202408FB00D5
:100700002508FC00201C892BFB09FC09FB0A0319A6
:10071000FC0A7B0883126907FD007C08FE006A085A
:100720000318FE0AFE077D08ED007E08EE006D0846
:10073000EF006E08F00008006308753A031DA52B52
:10074000E20A0A3062020318E2016308643A031DF8
:10075000B12B6208003C031CB02B0930E200B12B26
:10076000E2036208E40008006208C6006308C700EC
:10077000A501A601C801A301A401A701A8010800C1
:10078000F301F401F501F601F701F801C030831619
:1007900003139F00613083129F00F2010430720244
:1007A0000318E62B0130F90010201F151F19D62B56
:1007B00083161E08F30083121E08F4007308F7075F
:1007C00074080318F80AF807F20ACE2B7708F90024
:1007D0007808FA00FB01FC01FA0CF90CFA0CF90C90
:1007E0003F30FA057908F3007A08F4007B08F50039
:1007F0007C08F6007308F9007408FA007508FB001D
:100800007608FC0070308316A0001730A100A2010A
:10081000A301E9212708FD002808FE002908A400FB
:100820002A08A5007D08F3007E08F4002408F500DE
:100830002508F6007308F9007408FA007508FB0033
:100840007608FC000030A0000430A100A201A30142
:1008500039222808F3002908F4002A08F5002B089B
:10086000F6008312DA08031D892C7308F900740856
:10087000FA007508FB007608FC0009308316A0001A
:10088000A101A201A301E9212708FD002808FE001B
:100890002908A4002A08A5007D08F3007E08F400BA
:1008A0002408F5002508F6007308F9007408FA001A
:1008B0007508FB007608FC003230A000A101A201FF
:1008C000A30139222808F3002908F4002A08F500BA
:1008D0002B08F6002030F9007308F9077908F300B7
:1008E0000030F90074080318740FF9077908F40050
:1008F0000030F90075080318750FF9077908F5003D
:100900000030F90076080318760FF9077908F60029
:10091000A02C7308F9007408FA007508FB0076082B
:10092000FC0006308316A000A101A201A301392218
:100930002808F3002908F4002A08F5002B08F6001F
:100940007308F9007408FA0008006D0AF200B32178
:1009500073080313EE006D08F200B321730803134C
:10096000EF006E08F0006F08F1007008F2007108E7
:10097000F30008001030831603139B0083128501D7
:100980001030831685008312BF01A301A401A701C3
:10099000A801833083168600811383128601BF214C
:1009A0008030F6000130F700B9202030E400EB0081
:1009B000F000F100F200F3004130E5004730EC00B8
:1009C0006430E7006530E9006E30E6006F30ED001E
:1009D0007230E8007330EE00EF007730EA00F40187
:1009E0000030F5006430E2007508E3007521C03086
:1009F000F6000130F700B9202030EA00EF002E3079
:100A0000F2003130F3003230F1004F30EB00523061
:100A1000E4006530E500ED006630E6006C30E7008C
:100A20006E30EE006F30E8007630EC00F00077308A
:100A3000E900F4010030F5006430E2007508E300DD
:100A4000752108308600D030DF000730E0001C2020
:100A5000860124308316980090308312980033303A
:100A6000831699005030F200B32173080313DE009F
:100A70005130F200B32173080313DA005230F20050
:100A8000B32173080313DB005330F200B321730862
:100A90000313DC005430F200B32173080313DD00AC
:100AA0000800F201F501F6016708F3006808F40098
:100AB000721A0800691C622D7308F5077408031880
:100AC000740FF6070310EA0CE90C0310F30DF40D94
:100AD000F20A582DF201F401F301F3190800031092
:100AE000F40DE50DF20D66087202031C792DF2007B
:100AF0007414F30A6D2D7030831603138F00BA241B
:100B0000101690168B170B17013083168C0083126A
:100B100090109E308F0057308E000130F600F700A5
:100B2000B920833083168600831210140330D4005A
:100B30001430D5000330D700D0016E30CE00CF0185
:100B4000D101D2012308BD002408BE00861FB32DA9
:100B5000061CB32D861CB32D0130D0006E30CE00A4
:100B60003230F90010200618CE2D5003031DCE2D73
:100B70007530CE00D0010618CC2D02303D07E200C2
:100B80003E08E3000318E30A63082402031DCA2D8C
:100B900062082302031CBB2D0130CF008618E92D0B
:100BA0005003031DE92D6430CE00D0018618E72DD7
:100BB00002303D07E2003E08E3000318E30A630841
:100BC0002402031DE52D62082302031CD62D0130EB
:100BD000CF00861B042E5003031D042E7330CE005D
:100BE000D001861B022E02303D07E2003E08E300E2
:100BF0000318E30A63082402031D002E620823027F
:100C0000031CF12D0130CF0002303D07DF003E080C
:100C1000E0000318E00A60082402031D112E5F089B
:100C20002302031C152E0130D1005903031D6F2E22
:100C3000D9012308E2002408E30013233B08E20063
:100C40003C08E3001323C02379088312E2007A08EA
:100C5000E30013232908AB002A08AC00C02379085D
:100C60008312A9007A08AA00C80803193B2E313064
:100C7000E40070213E2E3030E40070210D30E4009D
:100C800070210A30E40070214703031D502EC02359
:100C900079088312E6007A08E7000C30E8003C216E
:100CA0004603031D5E2E2308E6002408E7000230F9
:100CB000E8003C21A70A0319A80A652EC608031DEF
:100CC000652E2508A3002608A4004803031D6D2EE9
:100CD00006165B03031986156F2E0612861154083B
:100CE000003A03198B2E013A03197F2F033A8A1514
:100CF00003197628013A03191629073A0319162908
:100D0000093A0319BE2B033A0319BE2B0B3A0319F8
:100D1000372D8A119F2DD5080319D42E0130F600E6
:100D2000F700B9204D30E4006F30E5006430E60094
:100D30006530E7003A30E800E9010030EA0064304D
:100D4000E2006A08E3007521C030F6000130F700C8
:100D5000B9202030E600E700E900EA00EC00ED00F1
:100D60002F30F0004D30E400E5004E30EE005330FF
:100D7000F1006530F2006C30F3007830E800EB00F1
:100D8000EF00F4010030F5006430E2007508E30084
:100D90007521D5015703D6000130CF007330CE0046
:100DA000D101E201E301B4234F03031D9F2D4E083F
:100DB000733A031D9F2D5103031DE12E5608D400E5
:100DC0009F2DD60A5608D7008730F6000130F7006D
:100DD000B9205608063A031DEF2E0130D6005608FA
:100DE000013A0319002F033A0319182F013A031986
:100DF000332F073A03194D2F013A0319672F9F2DFF
:100E00002030E400E500E6004D30E7006130E80006
:100E1000EB006C30EC006E30E9007530EA00ED015B
:100E20000030EE006430E2006E08E30075219F2D73
:100E30005330E4006530E5006D30E6006930E700CE
:100E40002D30E8004130E9007530EA007430EB00E5
:100E50006F30EC00ED010030EE006430E2006E080F
:100E6000E30075219F2D2030EB003130EC00503035
:100E7000E4006130E9006730E7006D30EA006F3070
:100E8000E6007230E500E800ED010030EE0064306D
:100E9000E2006E08E30075219F2D2030EB00323018
:100EA000EC005030E4006130E9006730E7006D305D
:100EB000EA006F30E6007230E500E800ED01003036
:100EC000EE006430E2006E08E30075219F2D2030B3
:100ED000E400E500E600E7005330E8006530E90093
:100EE0007430EA007530EB007030EC00ED0100303A
:100EF000EE006430E2006E08E30075219F2D55037B
:100F00000319D12F8030F6000130F700B9202030CE
:100F1000E400E500E600E700EA00EB00EC00ED008D
:100F2000EE00EF003030E800F000F100F200733026
:100F3000E900F3010030F4006430E2007408E300DB
:100F400075212E23C030F6000130F700B920203083
:100F5000E600EA00EF00F0002D30EC002F30E80052
:100F6000F1004130E5004530F2004D30E4005230F0
:100F7000E700E900EB006E30EE006F30ED007830F6
:100F8000F300F4010030F5006430E2007508E3007E
:100F900075210130D500E2010130E300B423BB012B
:100FA000BC014F03031D9F2D4E08753A0319E12F15
:100FB000113A8A1503191828173A031971288A114A
:100FC0009F2D5103031DE72F1430D5009F2DC60818
:100FD0008A15031D02282508A3002608A400C33093
:100FE000F6000130F7008A11B9205330E400E50122
:100FF0000030E6006430E2006608E300752101304D
:10100000C6009F2D2308A5002408A600C330F600C3
:101010000130F7008A11B9205230E400E5010030B8
:10102000E6006430E2006608E3007521C6019F2DEA
:10103000C808031D48280130C800C930F600013037
:10104000F7008A11B9206F30E4006630E500E60051
:10105000E7010030E8006430E2006808E300752131
:101060008730F6000130F700B9205230E4004530F7
:10107000E5004C30E6004130E7005930E800E90176
:101080000030EA006430E2006A08E30075219F2D19
:10109000C801C930F6000130F7008A11B9206F305D
:1010A000E4006E30E5002030E600E7010030E800A3
:1010B0006430E2006808E30075218730F6000130F3
:1010C000F700B9202030E400E500E600E700E80082
:1010D000E9010030EA006430E2006A08E3007521AB
:1010E0009F2D51030319D4018A119F2D5508023AEF
:1010F0000319DA288030F6000130F7008A11B92090
:101100002030E400E500E600E700E800E900EA003E
:101110003030EB00EC00ED00EE010030EF00643009
:10112000E2006F08E30075212E232030E400303008
:10113000E500E600E700E8010030E9006430E20085
:101140006908E30075212E23C030F6000130F70056
:10115000B9202030E600EA00EE00EF00F0002F306A
:10116000E800EC00F1004130E5004430EB00ED0018
:101170004530F2005330E4005530E700E9007830A4
:10118000F300F4010030F5006430E2007508E3007C
:101190007521C02379088312E6007A08E7000C3035
:1011A000E8003C210230D500E2010130E300B42325
:1011B000BB01BC014F038A15031DFC284E08753A7C
:1011C0000319E928113A0319E928173A0319F928EC
:1011D000FC283B08E2003C08E3004E08E40007302E
:1011E000E5008A1172226608BB006708BC008A15F8
:1011F000FC2851030319D4013B08E6003C08E70032
:101200000730E8008A113C21C02383123C087A028F
:101210008A15031D0D293B08790203181329013093
:10122000C8008A119F2DC8018A119F2D5508033AC5
:101230000319E7295508043A0319E7298030F60015
:101240000130F7008A11B9202030E500EA00303083
:10125000E400E600E700E800EB00EC00ED0073308E
:10126000E900EE010030EF006430E2006F08E300B7
:1012700075212E232030E4003030E500E600E70041
:10128000E8010030E9006430E2006908E3007521FC
:101290002E23C030F6000130F700B9202030E600E0
:1012A000EA00EE002F30E800F1003130E500453073
:1012B000EF00F2004A30EB005030E4005230E7001B
:1012C000E9006430F0006D30EC007030ED007830F3
:1012D000F300F4010030F5006430E2007508E3002B
:1012E00075215408033A8A15031D9D292030E60014
:1012F000EA00EE002F30E800F1003130E500453023
:10130000EF00F2004A30EB005030E4005230E700CA
:10131000E9006430F0006D30EC007030ED007830A2
:10132000F300F4010030F5006430E2007508E300DA
:101330008A1175210330D500C9015408043A8A1571
:10134000031DB629C130F6000130F7008A11B9201B
:101350003230E400E5010030E6006430E200660867
:10136000E30075210430D5002830C900E2010130C6
:10137000E3008A11B423C4014908C0004008ED000D
:10138000A5247208B5007308B600A701A8010230B1
:101390004007ED00A5247208B7007308B8003508AF
:1013A000E6003608E7000230E8003C213708E60096
:1013B0003808E7000730E8003C212630B900BA01C0
:1013C000DA088A15031DE7296430B900BA0146031B
:1013D000031D0A2B28083602031DF02927083502B1
:1013E00003182C2AC40AA701A8014408E500E60155
:1013F000E50DE60DE50DE60DFC30E5054908650750
:10140000C0004008ED008A11A5247208B5007308D9
:10141000B6003708B9003808BA0002304007ED00BE
:10142000A5247208B7007308B8008030F6000130B8
:10143000F700B9204408E9001F216C08F600F70105
:10144000B920B5088A15031D2C2AB608031D2C2ABD
:10145000C601C8011430D5003508E5003608E6009D
:101460002708E7002808E8003908E9003A08EA00F8
:101470003708EB003808EC008A114D236F08BB00D9
:101480007008BC003B08E6003C08E7000730E800B5
:101490003C215E08E2000310620C2707E3002808E5
:1014A000E4000318E40A640836028A15031D5A2A68
:1014B00063083502031C7E2A3508E5003608E6007D
:1014C0005E08ED0003106D0C2707EE002808EF0002
:1014D0000318EF0A6E08E7006F08E8003908E90012
:1014E0003A08EA003708EB003808EC008A114D236F
:1014F0006F08B1007008B2008A15AF2A04304007A7
:10150000ED008A11A5247208E5007308E6005E0864
:10151000EF000310EF0C27083502ED00280A03182E
:1015200028083602EE006D086F02F0006E09F10027
:101530000318F10A7008E7007108E8003708E900AD
:101540003808EA0006304007ED00A5247208EB00D9
:101550007308EC004D236F08B1007008B2008A11C7
:10156000C02383125E08E5000630E6006A25740891
:10157000ED002B082902EB002C0A03182C082A0284
:10158000EC006D08E700E8016B08E9006C08EA0070
:1015900051257508EE007608EF006E087907F00017
:1015A0006F08F1007A080318F10AF1077008AF001C
:1015B0007108B000C02383123B087902E7003C0A9F
:1015C00003183C087A02E80031082F02E500320ACD
:1015D000031832083002E60065086707E90066086C
:1015E000EA0068080318EA0AEA076908B3006A080B
:1015F000B4008030E5003408803A65023308B4084E
:101600000319003C8A15031C082B0130C8000E2B5F
:10161000C8010E2B2508A3002608A4004F038A1139
:10162000031D9F2D4E08753A8A1503191F2B113A79
:101630000319572B173A0319B22B8A119F2D510307
:10164000031D262B1430D5008A119F2DC608031DBB
:10165000402B2508A3002608A400C330F600013063
:10166000F7008A11B9205330E400E5010030E600AC
:101670006430E2006608E30075210130C6009F2D4A
:101680002308A5002408A600C330F6000130F700A7
:101690008A11B9205230E400E5010030E6006430E0
:1016A000E2006608E3007521C601C8019F2DA5016F
:1016B000A601A301A401C330F6000130F7008A118E
:1016C000B9205230E400E5010030E6006430E20069
:1016D0006608E3007521C801C601C40A4408E20097
:1016E000E301E20DE30DE20DE30DFC30E2054908F4
:1016F0006207C0004008ED00A5247208B500730819
:10170000B600B5088A15031D8A2BB608031D8A2B5F
:101710001430D5003708B9003808BA000230400745
:10172000ED008A11A5247208B7007308B8003508C7
:10173000E6003608E7000230E8003C213708E60002
:101740003808E7000730E8003C218030F60001301F
:10175000F700B9204408E9001F216C08F600F701E2
:10176000B9209F2D5408D5005103031DBA2BD40175
:101770008A119F2D0A30D4078A119F2D55080D3AE2
:101780000319492C55080E3A0319492CC030F600AC
:101790000130F7008A11B9202030E600EA00EE009F
:1017A0002F30E800EC00F1003130E5004430EB0070
:1017B000ED004530E400F2004E30EF005530E70018
:1017C000E9007830F000F300F4010030F5006430F7
:1017D000E2007508E300752154080D3A8A15031DCF
:1017E000F42B0D30D500C90154080E3A031D0E2C00
:1017F000C130F6000130F7008A11B9203230E40020
:101800002030E500E6010030E7006430E2006708C0
:10181000E30075210E30D5002830C900E201E30154
:101820008A11B423C4014908C0004008ED00A52472
:101830007208B5007308B60002304007ED00A52419
:101840007208B7007308B8008030F6000130F70066
:10185000B9204408E9001F216C08F600F701B920FF
:101860003508E6003608E7000230E8003C2137087A
:10187000E6003808E7000730E8003C218030F60039
:101880000130F700B9200F30F6000130F700B92021
:10189000CA014F038A11031D9F2D4A08003A8A1579
:1018A0000319592C053A0319AB2C0F3A0319D72CFD
:1018B000082D4408E2004E08E3008A119C236408C6
:1018C000C4004408E200E301E20DE30DE20DE30D84
:1018D000FC30E20549086207C0004008ED00A5247D
:1018E0007208B5007308B600B5088A15031D7C2C74
:1018F000B608031D7C2CC40102304007ED008A119C
:10190000A5247208B7007308B8003508E600360849
:10191000E7000230E8003C213708E6003808E7001D
:101920000730E8003C218030F6000130F700B92094
:101930004408E9001F216C08F600F701B920803047
:10194000F6000130F700B9200F30F6000130F70043
:10195000B9208A15082D4E08753A0319B32C4E0884
:10196000643A031DC12C3508E2003608E3004E0836
:10197000E4000230E5008A1172226608B5006708AB
:10198000B6004408E200E301E20DE30DE20DE30DD1
:10199000FC30E20549086207C0004008E200350853
:1019A000E3003608E4008A113D238A15082D4E080D
:1019B000753A0319DF2C4E08643A031DED2C3708E5
:1019C000E2003808E3004E08E4000730E5008A1121
:1019D00072226608B7006708B8004408E200E30115
:1019E000E20DE30DE20DE30DFC30E205490862076C
:1019F000E4006308E5000318E50A02306407C0004C
:101A00004008E2003708E3003808E4008A113D236B
:101A10004E08733A8A11031D9F2D51038A15031D29
:101A20001C2D5408D5000A30D4020C30F6000130C9
:101A3000F7008A11B9209F2D4A08053A031D232D6E
:101A40000A30CA002A2DCA08031D292D0530CA00F4
:101A50002A2DCA014A08803EF6000130F7008A119B
:101A6000B9200F30F6000130F700B9209F2D55083E
:101A7000053A03196D2DC030F6000130F7008A11C8
:101A8000B9202030E600E900EA00ED00EE002F303A
:101A9000F1004430EB004530F2004E30EF0053309F
:101AA000E4005530E500E7006E30EC007030E800EF
:101AB0007830F000F300F4010030F5006430E2000B
:101AC0007508E30075210530D500E201E301B42378
:101AD0000130D800CF006E30CE004F038A11031DB5
:101AE0009F2D4E08733A8A1503197D2D173A031955
:101AF0008A2D113A03198A2DD02D5103031D822DF1
:101B0000D401D02DD80A5808063A031DD02D013033
:101B1000D800D02D58084F3EC0004008F2008A116E
:101B2000B32173080313E10058038A15031DA72D81
:101B30004E08753A0319E10A4E08643A0319E103A5
:101B40006108E600E7010C30E8008A113C215808E2
:101B5000023A8A150319B02D5808033A031DBA2D0D
:101B60006103031DB52DE101BA2DE108031DBA2D56
:101B70000130E1005808043A0319C22D5808053A0B
:101B8000031DCA2D6108E2004E08E3008A119C2360
:101B90006408E1006108E6004008E7008A118B2133
:101BA00058084F3EC0004008F2008A11B321730864
:101BB0000313E1008030F6000130F700B920580827
:101BC000013A8A150319F22D033A03191F2E013A1F
:101BD00003194B2E073A0319972E013A0319DA2EEF
:101BE0008A119F2D6108DE002030E800EE00F00031
:101BF000F100F2003D30EF004330E9005430E400E2
:101C00006530E7006930E5006D30E6006E30EB00CE
:101C10006F30EA007330EC00F3007430ED00F40133
:101C20000030F5006430E2007508E3008A11752188
:101C30006108E600E7010C30E8003C219F2D6108B7
:101C4000DA002030E800EE00EF00F100F2003D3055
:101C5000F0005430E4005530E9006530E5006930AB
:101C6000EB006D30E6006E30EA007030E700733054
:101C7000ED007430EC00F3010030F4006430E20059
:101C80007408E3008A1175218F30F6000130F700E7
:101C9000B9202E239F2D6108DB002030E900ED00E4
:101CA000EE003D30EF004430EC004530EB004C30AE
:101CB000EA005230E4006130E7006530E5006C3046
:101CC000E6007930E800F0010030F1006430E20015
:101CD0007108E3008A1175218C30F6000130F7009D
:101CE000B92061038A15031D862E2030E400E70029
:101CF0004E30E6004F30E500E8010030E900643086
:101D0000E2006908E3008A1175219F2D2030E4006C
:101D10004F30E5004630E600E700E8010030E9001A
:101D20006430E2006908E3008A1175219F2D610883
:101D3000DC002030EA00EF00F100F200F3002F3069
:101D4000E6003D30F0004930EB005430E4006330F1
:101D5000ED006D30E500E8006E30EC007030E90019
:101D60007230EE007430E700F4010030F5006430AA
:101D7000E2007508E3008A1175218E30F60001300B
:101D8000F700B9206108093A8A15031DD12E3130B8
:101D9000F600F7018A11B9203030F600F701B920BA
:101DA0009F2D610AE9008A111F216C08F600F701D6
:101DB000B9209F2D6108DD002030E900ED00EE0024
:101DC000F000F100F200F3003D30EF004330E4009A
:101DD0006130EB006330E700EA006B30E8006C3004
:101DE000E500EC006F30E600F4010030F5006430EF
:101DF000E2007508E3008A1175218E30F60001308B
:101E0000F700B9206108093A8A15031D112F3130F6
:101E1000F600F7018A11B9203030F600F701B92039
:101E20009F2D610AE9008A111F216C08F600F70155
:101E3000B9209F2D83120313C101A901AA01AB018F
:101E4000AC01AD01AE01AF01B001B101B201BB0106
:101E5000BC01C601C701C801BD01BE01D201D30149
:101E6000D9018A110A127B2D8A1135208A150C1C82
:101E7000632F10109E308F005D088316AC00143065
:101E8000AD008A1147203308AE003408AF002E0899
:101E9000573E83128E00BF0A3F080A3A8A15031D77
:101EA000572FBF01A30A0319A40A0130D900033038
:101EB0002402031D5D2FE7302302031C612FA301C1
:101EC000A4010C1010148A113F20220E8400210E50
:0C1ED0008A00200E8300FF0E7F0E090028
:02400E00303F41
:1042000000002300000028000000780000008C005F
:1042100000005A000000DB0000001E000000E60065
:1042200000001E000000DB00000078000000B40069
:10423000000000000000000000000000000000007E
:10424000000000000000000000000000000000006E
:1042500000000F000000280000005A000000960037
:1042600000005A000000B40000001E000000D7004B
:1042700000003C000000960000000000000000006C
:10428000000000000000000000000000000000002E
:10429000000000000000000000000000000000001E
:1042A00014000100010004000400000000000000F0
:1042B00000000000000000000000000000000000FE
:0842C0000000000000000000F6
:00000001FF
