:040000008A15542EDB
:08000800FF00030E8312031335
:10001000A0000A0EA100040EA2008A150A126E2E7C
:10002000F708031D14280800F930FF3E031D1528AA
:100030000000F70B14280800F708031D202808000B
:100040001830FF3E031D21280000F70B2028080070
:100050000330DF07DF0CDF0C7F30DF050000DF0B34
:100060002E2808005F08003C0318600803190800E8
:10007000E1010430610203184628E20145306202C2
:1000800003184428E20A3E28E10A3928DF08031948
:10009000E003DF03322883120313C2000308830145
:1000A000C3000A08C5008A0108008312031345082B
:1000B0008A004308830042080800A901AC01AD0191
:1000C0002508AA00AB01A9190800261C6D282A08DA
:1000D000AC070318AD0A2B08AD07A60C0310AA0D38
:1000E000AB0DA90A6328771C782883120313051423
:1000F00077187D28831203130510F71C82288312BA
:1001000003138514F7188728831203138510771DAE
:100110008C28831203130515771991288312031372
:100120000511F71D9628831203138515F71908008A
:1001300083120313851108007608F70073208312D9
:10014000031385170130F7001C2085130530F700D5
:1001500010200800F201F301EF01F001F101711A22
:1001600008000310EF0DF00DEB0DEC0DF20DF30D8B
:100170006E087302031DBE286D087202031CC72897
:100180006D08F2026E08031CF303F3026F14F10A08
:10019000AF28FA01FB01FD01FE01FC017C1A0800F9
:1001A0000310FD0DFE0DF30DF40DFA0DFB0D760899
:1001B0007B02031DDD2875087A02031CE6287508FA
:1001C000FA027608031CFB03FB027D14FC0ACE280E
:1001D000831203130617750E0F39F6009C2075085D
:1001E000F6009C2008000613690E0F39F6009C20CB
:1001F0006908F6009C2008006908F3006A08F4000A
:100200006430F500F601C9207D08CB006908EB00D9
:100210006A08EC006430ED00EE01AA207208E900E3
:100220007308EA006908F3006A08F4000A30F50070
:10023000F601C9207D08CC006908EB006A08EC00D3
:100240000A30ED00EE01AA207208E9007308EA0006
:100250006908CD000800EA01003069020318EA0AC3
:100260006A08093C031C382930306907EC00080093
:10027000EB010A3069020318EB0A6B080F3C031C00
:10028000452937306907EC0008003F30EC000800D2
:100290006608E9006708EA00FC206808803EE9007B
:1002A000F320CB08031D58292030F500E8205E29F3
:1002B0004B08E9002B216C08F500E820CB08031D52
:1002C0006829CC08031D68292030F500E8206E2934
:1002D0004C08E9002B216C08F500E8204D08E900E6
:1002E0002B216C08F500E82008000C1E7529640815
:1002F000990008008313631883176208840080083C
:100300000319080083136318831762088400E20A44
:100310000319E30A0008F500E8207A2968108B1B0E
:100320006814831603178C130C12831203130D1217
:10033000670803178D000313660803178C008316E4
:100340000C158B1355308D00AA308D008C14831240
:1003500003130D1EA7290D12831603170C11831208
:10036000031368188B17681C8B1308008316031778
:100370008C13720883128D0083160C1483120C08E0
:10038000F300080083120313061305131430F7005B
:1003900010200330F6009C200530F70010200330B9
:1003A000F6009C20C830DF0028200330F6009C2097
:1003B000C830DF0028200230F6009C200530F7000E
:1003C00010202830E900F3200830E900F320013044
:1003D000E900F3200630E900F3200C30E900F320B7
:1003E000080083160313A001A101A201A301A40127
:1003F000A01A0800771C0A2A7308A10774080318BA
:10040000740FA20775080318750FA3077608031861
:10041000760FA4070310FA0CF90CF80CF70C031074
:10042000F30DF40DF50DF60DA00AF829F901FC0104
:10043000FD01831203136F08FA007008FB00F21F1E
:10044000272AF917F109F209F10A0319F20A791AB0
:10045000392A711C312A7A08FC077B0803187B0FA4
:10046000FD070310F20CF10C0310FA0DFB0DF90A55
:10047000272AF91F0800FC09FD09FC0A0319FD0AD7
:100480000800FB01FC01FD01FE0183160313A1011D
:10049000A201A301A401A001A01A08000310A10D4C
:1004A000A20DA30DA40DF30DF40DF50DF60DFB0D2E
:1004B000FC0DFD0DFE0D7A087E02031D692A7908E8
:1004C0007D02031D692A78087C02031D692A7708CA
:1004D0007B02031C7A2A7708FB027808031C780F3A
:1004E000FC027908031C790FFD027A08031C7A0FBD
:1004F000FE022114A00A4C2A6408753A031DD02A72
:100500005C08E600E701E60A0319E70A6608E20765
:1005100067080318E30AE3076308033C031D922AF4
:100520006208E73C03189E2A5C08E600E701E60A39
:100530000319E70A6608E2006708E3006208E600BC
:100540006308E7006508E80048210618D02A5C081F
:10055000E600E701E60A0319E70A6608E20767080A
:100560000318E30AE3076308033C031DB92A620882
:10057000E73C0318C52A5C08E600E701E60A031910
:10058000E70A6608E2006708E3006208E60063081D
:10059000E7006508E80048216430F7001020A52A2C
:1005A0006408643A031D182B6208003C6308031CAE
:1005B000E02A031DE02AE730E2000330E300EC2AE2
:1005C0005C08E600E701E60A0319E70A6608E202AA
:1005D0006708031CE303E3026208E6006308E70020
:1005E0006508E80048218618182B6208003C63085B
:1005F000031C012B031D012BE730E2000330E30055
:100600000D2B5C08E600E701E60A0319E70A660815
:10061000E2026708031CE303E3026208E6006308E2
:10062000E7006508E80048216430F7001020F32A4D
:100630006208E6006308E70008006208E900630852
:10064000EA00FC204B08E9002B216C08E40075212E
:100650004C08E9002B216C08E40075214D08E900E5
:100660002B216C08E40075210930E4007521080095
:10067000831203135A03031D412B4330F500E82076
:1006800008004630F500E8200800E5016308E500B1
:100690006508E600620AE7008E216408E500650847
:1006A000E6006208E7008E21080069086B02F1008D
:1006B0006A0A03186A086C02F2006708EF0068080B
:1006C000F00016227C08F3007D08F700F901770896
:1006D000F400F71F712BF309F409F30A0319F40A64
:1006E000F90A6508F5006608F600E61F7D2BF50996
:1006F000F609F50A0319F60AF90AC9207D08F80077
:100700007E08EE00791C892BF809EE09F80A031916
:10071000EE0A78086907ED006A080318EE0AEE078A
:100720006D08EF006E08F00008006308753A031DBD
:100730009E2BE20A0A3062020318E2016308643A5F
:10074000031DAA2B6208003C031CA92B0930E20000
:10075000AA2BE2036208E40008006208C6006308EE
:10076000C700A501A601C801A301A401A701A80112
:10077000080083120313ED01EE01EF01F001F10116
:10078000F201C03083169F00613083129F00EC019C
:1007900010306C020318E02B0130F70010201F15F9
:1007A0001F19D02B83161E088312ED001E08EE00C1
:1007B0006D08F1076E080318F20AF207EC0AC82B5D
:1007C0007108F3007208F400F40CF30CF40CF30C51
:1007D000F40CF30CF40CF30C0F30F4057308ED007B
:1007E0007408EE000030EF00F0006D08F3006E08B2
:1007F000F4006F08F5007008F6008830F700133039
:10080000F800F901FA01F1212108FB002208FC009F
:100810002308FD002408FE007B088312ED007C08FD
:10082000EE007D08EF007E08F0006D08F3006E0812
:10083000F4006F08F5007008F6000030F70004308F
:10084000F800F901FA01412221088312ED00831614
:1008500022088312EE00831623088312EF0083160A
:100860002408F0008312DA08031D912C6D08F300B0
:100870006E08F4006F08F5007008F6000930F70004
:10088000F801F901FA01F1212108FB002208FC001E
:100890002308FD002408FE007B088312ED007C087D
:1008A000EE007D08EF007E08F0006D08F3006E0892
:1008B000F4006F08F5007008F6003230F700F80118
:1008C000F901FA01412221088312ED008316220862
:1008D0008312EE00831623088312EF008316240888
:1008E000F0002030F30083126D08F3077308ED0069
:1008F0000030F3006E0803186E0FF3077308EE0064
:100900000030F3006F0803186F0FF3077308EF0050
:100910000030F30070080318700FF3077308F0003D
:10092000AD2C6D08F3006E08F4006F08F500700838
:10093000F6000A30F700F801F901FA014122210816
:100940008312ED00831622088312EE00831623081B
:100950008312EF0083162408F00083126D08F30061
:100960006E08F40008006D0AF200B6217308031344
:10097000EE006D08F200B62173080313EF006E0855
:10098000F0006F08F1007008F2007108F300080031
:100990001030831603139B008312850110308316D9
:1009A00085008312BF01A301A401A701A801833020
:1009B00083168600811383128601C2218030E900EC
:1009C000F3202030EC00EE00F3002630ED0046303E
:1009D000E9005230EF005330E4006130E600F100EE
:1009E0006B30E8006E30EB00F2007030E5007230E2
:1009F000E7007530EA007930F000F4010030E300E0
:100A00006430E2007A21C030E900F3202030E400B5
:100A1000ED00F200F3002E30F0003030F100313004
:100A2000EF004630E9004F30E5006530E7006C30FC
:100A3000EA006E30E8006F30EB007630E600EE0042
:100A40007730EC00F4010030E3006430E2007A21FA
:100A500008308600D030DF000730E0003220860109
:100A60002430831698009030831298003330831618
:100A700099005030F200B62173080313DE005130A4
:100A8000F200B62173080313DA005230F200B621E7
:100A900073080313DB005330F200B621730803130D
:100AA000DC005430F200B62173080313DD000800A7
:100AB000EC01EF01F0016708ED006808EE006C1A28
:100AC0000800691C692D6D08EF076E0803186E0F8A
:100AD000F0070310EA0CE90C0310ED0DEE0DEC0A23
:100AE0005F2DEC01EE01ED01ED1908000310EE0D94
:100AF000E50DEC0D66086C02031C802DEC006E14F5
:100B0000ED0A742D7030831603138F00C82410165D
:100B100090168B170B17013083168C0083129010E0
:100B20009E308F0057308E000130E900F320833073
:100B30008316860083121014D4011430D5000130BE
:100B4000D700D0016E30CE00CF01D101D2012308F1
:100B5000BD002408BE00861FB82D061CB82D861CBB
:100B6000B82D0130D0006E30CE003230F7001020AA
:100B70000618D32D5003031DD32D7530CE00D001A0
:100B80000618D12D02303D07E2003E08E3000318AD
:100B9000E30A63082402031DCF2D62082302031C0D
:100BA000C02D0130CF008618EE2D5003031DEE2D11
:100BB0006430CE00D0018618EC2D02303D07E200F3
:100BC0003E08E3000318E30A63082402031DEA2D2C
:100BD00062082302031CDB2D0130CF00861B092E87
:100BE0005003031D092E7330CE00D001861B072E43
:100BF00002303D07E2003E08E3000318E30A630801
:100C00002402031D052E62082302031CF62D013069
:100C1000CF0002303D07DF003E08E0000318E00A85
:100C200060082402031D162E5F082302031C1A2EDF
:100C30000130D1005903031D712ED9012308E200B0
:100C40002408E3001D233B08E2003C08E3001D23C9
:100C5000B9237308E2007408E3001D232908AB00E0
:100C60002A08AC00B9237308A9007408AA00C808B0
:100C700003193E2E3130E4007521412E3030E4005E
:100C800075210D30E40075210A30E4007521470319
:100C9000031D522EB9237308E6007408E7000C30D8
:100CA000E80048214603031D602E2308E6002408BF
:100CB000E7000230E8004821A70A0319A80A672EB6
:100CC000C608031D672E2508A3002608A4004803B4
:100CD000031D6F2E06165B0303198615712E06126F
:100CE00086115408003A03198D2E013A03196E2F0C
:100CF000033A8A1503194328013A0319D728073AFA
:100D00000319D728093A03193C2B033A03193C2B42
:100D10000B3A0319932C8A11A42DD5080319CF2E51
:100D20000130E900F3204D30E4006F30E50064301D
:100D3000E6006530E7003A30E800E9010030E30002
:100D40006430E2007A21C030E900F3202030E60070
:100D5000E700E900EA00EC00ED002F30F0004D3034
:100D6000E400E5004E30EE005330F1006530F20053
:100D70006C30F3007830E800EB00EF00F401003055
:100D8000E3006430E2007A21D5015703D600013038
:100D9000CF007330CE00D101E201E301AD234F0358
:100DA000031DA42D4E08733A031DA42D5103031DEA
:100DB000DC2E5608D400A42DD60A5608D70087305A
:100DC000E900F3205608063A031DE82E0130D6004C
:100DD0005608013A0319F92E033A03190F2F013A65
:100DE0000319282F073A0319402F013A0319582FE6
:100DF000A42D2030E400E500E6004D30E70061302E
:100E0000E800EB006C30EC006E30E9007530EA0071
:100E1000ED010030E3006430E2007A21A42D53306C
:100E2000E4006530E5006D30E6006930E7002D3004
:100E3000E8004130E9007530EA007430EB006F30B3
:100E4000EC00ED010030E3006430E2007A21A42DD3
:100E50002030EB003130EC005030E4006130E9002C
:100E60006730E7006D30EA006F30E6007230E50071
:100E7000E800ED010030E3006430E2007A21A42DA7
:100E80002030EB003230EC005030E4006130E900FB
:100E90006730E7006D30EA006F30E6007230E50041
:100EA000E800ED010030E3006430E2007A21A42D77
:100EB0002030E400E500E600E7005330E80065304C
:100EC000E9007430EA007530EB007030EC00ED01A1
:100ED0000030E3006430E2007A21A42D55030319A9
:100EE000B82F8030E900F3202030E400E500E60070
:100EF000E700EA00EB00EC00ED00EE00EF00303020
:100F0000E800F000F100F2007330E900F301003076
:100F1000E3006430E2007A213823C030E900F32096
:100F20002030E600EA00EF00F0002D30EC002F301A
:100F3000E800F1004130E5004530F2004D30E400BA
:100F40005230E700E900EB006E30EE006F30ED004C
:100F50007830F300F4010030E3006430E2007A21DD
:100F60000130D500E2010130E300AD23BB01BC013B
:100F70004F03031DA42D4E08753A0319C82F113ACB
:100F80000319F42F173A8A1503193E288A11A42D44
:100F90005103031DCE2F1430D500A42DC608031D08
:100FA000E32F2508A3002608A400C330E900F3209E
:100FB0005330E400E5010030E3006430E2007A21C0
:100FC0000130C600A42D2308A5002408A600C330C4
:100FD000E900F3205230E400E5010030E300643022
:100FE000E2007A21C601A42DC8088A15031D1D2818
:100FF0000130C800C930E9008A11F3206F30E400E5
:101000006630E500E600E7010030E3006430E2000E
:101010007A218730E900F3205230E4004530E500C2
:101020004C30E6004130E7005930E800E90100307B
:10103000E3006430E2007A21A42DC801C930E90040
:101040008A11F3206F30E4006E30E5002030E600B6
:10105000E7010030E3006430E2007A218730E900E4
:10106000F3202030E400E500E600E700E800E901B5
:101070000030E3006430E2007A21A42D510303190B
:10108000D4018A11A42D5508023A03199C288030F6
:10109000E9008A11F3202030E400E500E600E700D3
:1010A000E800E900EA003030EB00EC00ED00EE0172
:1010B0000030E3006430E2007A2138232030E4007D
:1010C0003030E500E600E700E8010030E30064307E
:1010D000E2007A213823C030E900F3202030E60016
:1010E000EA00EE00EF00F0002F30E800EC00F10025
:1010F0004130E5004430EB00ED004530F200533064
:10110000E4005530E700E9007830F300F4010030E6
:10111000E3006430E2007A21B9237308E600740822
:10112000E7000C30E80048210230D500E201013030
:10113000E300AD23BB01BC014F038A15031DBE288C
:101140004E08753A0319AB28113A0319AB28173A20
:101150000319BB28BE283B08E2003C08E3004E0808
:10116000E4000730E5008A117C226608BB006708AE
:10117000BC008A15BE2851030319D4013B08E600C0
:101180003C08E7000730E8008A114821B9233C08F1
:1011900074028A15031DCE283B0873020318D42855
:1011A0000130C8008A11A42DC8018A11A42D550848
:1011B000033A031998295508043A031998298030ED
:1011C000E9008A11F3202030E500EA003030E40025
:1011D000E600E700E800EB00EC00ED007330E9000A
:1011E000EE010030E3006430E2007A213823203041
:1011F000E4003030E500E600E700E8010030E300FD
:101200006430E2007A213823C030E900F320203036
:10121000E600EA00EE002F30E800F1003130E50092
:101220004530EF00F2004A30EB005030E40052301D
:10123000E700E9006430F0006D30EC007030ED0044
:101240007830F300F4010030E3006430E2007A21EA
:101250005408033A8A15031D52292030E600EA009B
:10126000EE002F30E800F1003130E5004530EF00AE
:10127000F2004A30EB005030E4005230E700E90061
:101280006430F0006D30EC007030ED007830F30029
:10129000F4010030E3006430E2008A117A21033067
:1012A000D500C9015408043A8A15031D6729C130C5
:1012B000E9008A11F3203230E400E5010030E30058
:1012C0006430E2007A210430D5002830C900E20100
:1012D0000130E3008A11AD23C4014908C000400871
:1012E000ED00B3247208B5007308B600A701A80189
:1012F00002304007ED00B3247208B7007308B8004D
:101300003508E6003608E7000230E80048213708D3
:10131000E6003808E7000730E80048212630B90029
:10132000BA01DA088A15031D98296430B900BA0198
:101330004603031D982A28083602031DA129270801
:1013400035020318D929C40AA701A8014408C0001E
:10135000E501C00DE50DC00DE50DFC30C0054908E7
:10136000C0074008ED008A11B3247208B500730865
:10137000B6003708B9003808BA0002304007ED005F
:10138000B3247208B7007308B8008030E900F32076
:101390004408E9002B216C08F500E820B5088A15FF
:1013A000031DD929B608031DD929C601C801143067
:1013B000D5003508E5003608E6002708E7002808CC
:1013C000E8003908E9003A08EA003708EB00380875
:1013D000EC008A1155236F08BB007008BC003B0865
:1013E000E6003C08E7000730E80048215E08E2001C
:1013F0000310620C2707E3002808E4000318E40A3E
:10140000640836028A15031D072A63083502031C87
:10141000272A3508E5003608E6005E08ED000310CF
:101420006D0C2707E7002808E8000318E80A3908C8
:10143000E9003A08EA003708EB003808EC008A11A6
:1014400055236F08B1007008B2008A15522A043083
:101450004007ED008A11B3247208E5007308E60026
:101460005E08E7000310E70C27083502ED00280AA4
:10147000031828083602E8006D08E702E809031897
:10148000E80A3708E9003808EA0006304007ED00AE
:10149000B3247208EB007308EC0055236F08B10009
:1014A0007008B2008A11B9235E08E5000630E60034
:1014B00071256E08E7002B082902E9002C0A0318A1
:1014C0002C082A02EA00E80158256F08EB00700892
:1014D000B0006B087307AF0074080318B00AB007B8
:1014E000B9233B087302B3003C0A03183C0874029A
:1014F000E60031082F02E500320A031832083002F4
:10150000B4006508B30766080318B40AB40780304E
:10151000E5003408803A65023308B4080319003C3A
:101520008A15031C962A0130C8009C2AC8019C2AEF
:101530002508A3002608A4004F038A11031DA42D2B
:101540004E08753A8A150319AD2A113A0319DD2A96
:10155000173A0319302B8A11A42D5103031DB42A05
:101560001430D5008A11A42DC608031DCA2A2508E7
:10157000A3002608A400C330E9008A11F3205330E9
:10158000E400E5010030E3006430E2007A2101303C
:10159000C600A42D2308A5002408A600C330E90036
:1015A0008A11F3205230E400E5010030E30064309A
:1015B000E2007A21C601C801A42DA501A601A3015C
:1015C000A401C330E9008A11F3205230E400E501A0
:1015D0000030E3006430E2007A21C801C601C40A89
:1015E0004408C000E201C00DE20DC00DE20DFC3068
:1015F000C0054908C0074008ED00B3247208B500D3
:101600007308B600B5088A15031D0B2BB608031D19
:101610000B2B1430D5003708B9003808BA00023057
:101620004007ED008A11B3247208B7007308B800B0
:101630003508E6003608E7000230E80048213708A0
:10164000E6003808E7000730E80048218030E9006C
:10165000F3204408E9002B216C08F500E820A42DB4
:101660005408D5005103031D382BD4018A11A42D31
:101670000A30D4078A11A42D55080D3A0319B82B46
:1016800055080E3A0319B82BC030E9008A11F3202F
:101690002030E600EA00EE002F30E800EC00F10018
:1016A0003130E5004430EB00ED004530E400F2005D
:1016B0004E30EF005530E700E9007830F000F300DD
:1016C000F4010030E3006430E2007A2154080D3A5E
:1016D0008A15031D6E2B0D30D500C90154080E3A32
:1016E000031D842BC130E9008A11F3203230E4005D
:1016F0002030E500E6010030E3006430E2007A21AA
:101700000E30D5002830C900E201E3018A11AD2373
:10171000C4014908C0004008ED00B3247208B500B8
:101720007308B60002304007ED00B3247208B7001A
:101730007308B8008030E900F3204408E9002B2149
:101740006C08F500E8203508E6003608E7000230AE
:10175000E80048213708E6003808E7000730E800CD
:1017600048218030E900F3200F30E900F320CA015E
:101770004F038A11031DA42D4A08003A8A15031944
:10178000C82B053A0319122C0F3A03193D2C6A2C69
:101790004408E2004E08E3008A1195236408C4005F
:1017A0004408C000E201C00DE20DC00DE20DFC30A6
:1017B000C0054908C0074008ED00B3247208B50011
:1017C0007308B600B5088A15031DEA2BB608031D79
:1017D000EA2BC40102304007ED008A11B3247208DD
:1017E000B7007308B8003508E6003608E700023095
:1017F000E80048213708E6003808E7000730E8002D
:1018000048218030E900F3204408E9002B216C08CE
:10181000F500E8208030E900F3200F30E900F320E4
:101820008A156A2C4E08753A03191A2C4E08643A28
:10183000031D282C3508E2003608E3004E08E400BA
:101840000230E5008A117C226608B5006708B60000
:101850004408C000E201C00DE20DC00DE20DFC30F5
:10186000C0054908C0074008E2003508E300360813
:10187000E4008A1145238A156A2C4E08753A03192B
:10188000452C4E08643A031D532C3708E2003808F3
:10189000E3004E08E4000730E5008A117C22660868
:1018A000B7006708B8004408C000E201C00DE20DAF
:1018B000C00DE20DFC30C0054908C0070318E20A5C
:1018C0000230C0074008E2003708E3003808E400AF
:1018D0008A1145234E08733A8A11031DA42D510322
:1018E0008A15031D7C2C5408D5000A30D4020C3014
:1018F000E9008A11F320A42D4A08053A031D832C20
:101900000A30CA008A2CCA08031D892C0530CA0077
:101910008A2CCA014A08803EE9008A11F3200F3060
:10192000E900F320A42D5508053A0319C52CC03051
:10193000E9008A11F3202030E600E900EA00ED001A
:10194000EE002F30F1004430EB004530F2004E3015
:10195000EF005330E4005530E500E7006E30EC0056
:101960007030E8007830F000F300F4010030E3005C
:101970006430E2007A210530D500E201E301AD23B5
:101980000130D800CF006E30CE004F038A11031D06
:10199000A42D4E08733A8A150319D52C173A03194A
:1019A000E22C113A0319E22C282D5103031DDA2CE5
:1019B000D401282DD80A5808063A031D282D0130D5
:1019C000D800282D58084F3EC0004008F2008A1168
:1019D000B62173080313E10058038A15031DFF2C79
:1019E0004E08753A0319E10A4E08643A0319E103F7
:1019F0006108E600E7010C30E8008A114821580828
:101A0000023A8A150319082D5808033A031D122DAE
:101A10006103031D0D2DE101122DE108031D122D9F
:101A20000130E1005808043A03191A2D5808053A04
:101A3000031D222D6108E2004E08E3008A11952360
:101A40006408E1006108E6004008E7008A118E2181
:101A500058084F3EC0004008F2008A11B6217308B2
:101A60000313E1008030E900F3205808013A8A1599
:101A70000319482D033A0319732D013A03199B2DBD
:101A8000073A0319DF2D013A03191B2E8A11A42DE1
:101A90006108DE002030E800EE00F000F100F20006
:101AA0003D30EF004330E9005430E4006530E7009A
:101AB0006930E5006D30E6006E30EB006F30EA0013
:101AC0007330EC00F3007430ED00F4010030E300FB
:101AD0006430E2008A117A216108E600E7010C30E7
:101AE000E8004821A42D6108DA002030E800EE006B
:101AF000EF00F100F2003D30F0005430E4005530CA
:101B0000E9006530E5006930EB006D30E6006E30CD
:101B1000EA007030E7007330ED007430EC00F30140
:101B20000030E3006430E2008A117A218F30E9004E
:101B3000F3203823A42D6108DB002030E900ED00FC
:101B4000EE003D30EF004430EC004530EB004C300F
:101B5000EA005230E4006130E7006530E5006C30A7
:101B6000E6007930E800F0010030E3006430E20084
:101B70008A117A218C30E900F32061038A15031D54
:101B8000D02D2030E400E7004E30E6004F30E50075
:101B9000E8010030E3006430E2008A117A21A42DCC
:101BA0002030E4004F30E5004630E600E700E80171
:101BB0000030E3006430E2008A117A21A42D61082C
:101BC000DC002030EA00EF00F100F200F3002F30DB
:101BD000E6003D30F0004930EB005430E400633063
:101BE000ED006D30E500E8006E30EC007030E9008B
:101BF0007230EE007430E700F4010030E30064302E
:101C0000E2008A117A218E30E900F3206108093A56
:101C10008A15031D132E3130F5008A11E82030306B
:101C2000F500E820A42D610AE9008A112B216C0837
:101C3000F500E820A42D6108DD002030E900ED006A
:101C4000EE00F000F100F200F3003D30EF00433011
:101C5000E4006130EB006330E700EA006B30E8003D
:101C60006C30E500EC006F30E600F4010030E3007A
:101C70006430E2008A117A218E30E900F320610895
:101C8000093A8A15031D4C2E3130F5008A11E820DF
:101C90003030F500E820A42D610AE9008A112B21DB
:101CA0006C08F500E820A42D83120313C101A901DB
:101CB000AA01AB01AC01AD01AE01AF01B001B101B0
:101CC000B201BB01BC01C601C701C801BD01BE0113
:101CD000D201D301D9018A110A12822D8A114B2017
:101CE0008A150C1C9D2E10109E308F005D088316E7
:101CF000A5001430A6008A115D202C08A7002D082D
:101D0000A8002708573E83128E00BF0A3F080A3AF0
:101D10008A15031D912EBF01A30A0319A40A0130DD
:101D2000D90003302402031D972EE7302302031C41
:101D30009B2EA301A4010C1010148A115520220E11
:101D40008400210E8A00200E8300FF0E7F0E090002
:02400E00303F41
:1042000000000F000000280000005A000000960087
:1042100000005A000000B40000001E000000D7009B
:1042200000003C00000096000000000000000000BC
:10423000000000000000000000000000000000007E
:10424000000000000000000000000000000000006E
:10425000000000000000000000000000000000005E
:10426000000000000000000000000000000000004E
:10427000000000000000000000000000000000003E
:10428000000000000000000000000000000000002E
:10429000000000000000000000000000000000001E
:1042A00014000100010004000400000000000000F0
:1042B00000000000000000000000000000000000FE
:0842C0000000000000000000F6
:00000001FF
