:040000008A15C02E6F
:08000800FF00030E8312031335
:10001000A4000A0EA500040EA6008A150A12E22EFC
:10002000FD08031D14280800F930FF3E031D1528A4
:100030000000FD0B142808006308003C0318640846
:1000400003190800E5010430650203183028E601B1
:100050004530660203182E28E60A2828E50A2328D8
:10006000E3080319E403E3031C2883120313C60007
:1000700003088301C7000A08C9008A010800831227
:10008000031349088A004708830046080800B001A6
:10009000B301B4012C08B100B201B01908002D1C45
:1000A00057283108B3070318B40A3208B407AD0C57
:1000B0000310B10DB20DB00A4D28F601F701F3019E
:1000C000F401F501751A08000310F30DF40D831205
:1000D0000313EF0DF00DF60DF70D72087702031DF7
:1000E000732871087602031C7C287108F6027208D6
:1000F000031CF703F7027314F50A6228831603132F
:10010000A001A101A201A301FE017E1A08000310B3
:10011000A20DA30DF70DF80DA00DA10D7A08210277
:10012000031D942879082002031C9D287908A00249
:100130007A08031CA103A1022214FE0A85287C145C
:100140001F308316031385008312051706137C1CCA
:10015000B72885170130FD0010207C1085197C140C
:10016000851385170130FD0010208513A728103056
:100170008316850008009F208312051385137B03D7
:10018000031DC4280613C5280617FA1B8515FA1F78
:1001900085117A1B05157A1F0511FA1A8514FA1EA6
:1001A00085107A1A05147A1E051085170130FD0096
:1001B00010208513FA198515FA1D85117A19051570
:1001C0007A1D0511FA188514FA1C85107A18051481
:1001D0007A1C051085170130FD00102085130800DA
:1001E0006D08F7006E08F8006430F900FA017E200F
:1001F00022088312CF006D08EF006E08F000643013
:10020000F100F2015D20760883120313ED007708F8
:10021000EE006D08F7006E08F8000A30F900FA01E8
:100220007E2022088312D0006D08EF006E08F000D7
:100230000A30F100F2015D20760883120313ED000D
:100240007708EE006D08D1000800EE0100306D0265
:100250000318EE0A6E08093C031C322930306D0782
:10026000F0000800EF010A306D020318EF0A6F0872
:100270000F3C031C3F2937306D07F00008003F306A
:10028000F00008006A08ED006B08EE00F0206C0832
:10029000803EFA000130FB00BB20CF08031D55292A
:1002A0002030FA00FB01BB205C294F08ED0025211E
:1002B0007008FA00FB01BB20CF08031D6729D00896
:1002C000031D67292030FA00FB01BB206E2950086E
:1002D000ED0025217008FA00FB01BB205108ED005C
:1002E00025217008FA00FB01BB2008000C1E7629AE
:1002F000680899000800F9018313671883176608D6
:10030000790784008008031908008313671883178E
:100310006608790784000008FA00FB01BB20F90A8F
:100320007C296C108B1B6C14831603178C130C1216
:10033000831203130D126B0803178D0003136A0851
:1003400003178C0083160C158B1355308D00AA30C3
:100350008D008C14831203130D1EAA290D1283160F
:1003600003170C11831203136C188B176C1C8B135F
:100370000800831603178C13760883128D008316EA
:100380000C1483120C08F7000800831203130613E1
:10039000051385136430FD00102003308500851798
:1003A00085130A30FD001020033085008517851362
:1003B0000130FD0010203230FA000130FB00BB207C
:1003C0002830FA000130FB00BB200C30FA0001306D
:1003D000FB00BB200130FA00FB00BB200800A60197
:1003E000A701A801A901AA01A61A0800201C062A33
:1003F0007908A7077A0803187A0FA8077B0803185B
:100400007B0FA9077C0803187C0FAA070310A30C15
:10041000A20CA10CA00C0310F90DFA0DFB0DFC0DA4
:10042000A60AF429FD0183160313A201A301730890
:10043000A0007408A100F61F232AFD17F509F6098C
:10044000F50A0319F60A7D1A352A751C2D2A20088B
:10045000A20721080318210FA3070310F60CF50CBF
:100460000310A00DA10DFD0A232AFD1F0800A209FB
:10047000A309A20A0319A30A0800A401A501A60161
:10048000A701A801A901AA01AB01FD01FD1A0800FD
:100490000310A80DA90DAA0DAB0DF90DFA0DFB0D5A
:1004A000FC0DA40DA50DA60DA70D23082702031D05
:1004B000632A22082602031D632A21082502031D40
:1004C000632A20082402031C742A2008A40221089D
:1004D000031C210FA5022208031C220FA6022308D9
:1004E000031C230FA7022814FD0A462A6808753A40
:1004F000031DCA2A6008EA00EB01EA0A0319EB0AA5
:100500006A08E6076B080318E70AE7076708033C71
:10051000031D8C2A6608E73C0318982A6008EA0045
:10052000EB01EA0A0319EB0A6A08E6006B08E70028
:100530006608EA006708EB006908EC00422106182B
:10054000CA2A6008EA00EB01EA0A0319EB0A6A0802
:10055000E6076B080318E70AE7076708033C031D73
:10056000B32A6608E73C0318BF2A6008EA00EB01DB
:10057000EA0A0319EB0A6A08E6006B08E700660856
:10058000EA006708EB006908EC0042216430FD00D6
:1005900010209F2A6808643A031D122B6608003C4D
:1005A0006708031CDA2A031DDA2AE730E600033065
:1005B000E700E62A6008EA00EB01EA0A0319EB0A01
:1005C0006A08E6026B08031CE703E7026608EA0014
:1005D0006708EB006908EC0042218618122B6608B8
:1005E000003C6708031CFB2A031DFB2AE730E600DA
:1005F0000330E700072B6008EA00EB01EA0A031961
:10060000EB0A6A08E6026B08031CE703E7026608C8
:10061000EA006708EB006908EC0042216430FD0045
:100620001020ED2A6608EA006708EB00080066085B
:10063000ED006708EE00F0204F08ED00252170085E
:10064000E80076215008ED0025217008E8007621A9
:100650005108ED0025217008E80076210930E800F6
:1006600076210800831203135E03031D3C2B4330E5
:10067000FA00FB01BB2008004630FA00FB01BB205A
:100680000800E9016708E9006908EA00660AEB006A
:1006900091216808E9006908EA006608EB009121E9
:1006A0000800831203136D086F02F5006E0A031829
:1006B0006E087002F6006B08F3006C08F40012225A
:1006C0002208F7002308FB00FD017B08F800FB1F50
:1006D0006F2BF709F809F70A0319F80AFD0A8312C4
:1006E0006908F9006A08FA00EA1F7C2BF909FA097F
:1006F000F90A0319FA0AFD0A7E202208FC002308E1
:10070000F2007D1C882BFC09F209FC0A0319F20A8D
:100710007C0883126D07F1006E080318F20AF207D5
:100720007108F3007208F40008006708753A031DA9
:100730009E2BE60A0A3066020318E6016708643A4F
:10074000031DAA2B6608003C031CA92B0930E600F8
:10075000AA2BE6036608E80008006608CA006708D6
:10076000CB00A901AA01CC01A701A801AB01AC01F2
:100770000800F301F401F501F601F701F801C030BA
:10078000831603139F00613083129F00F201103023
:1007900072020318DF2B0130FD0010201F151F19F6
:1007A000CF2B83161E08F30083121E08F400730873
:1007B000F70774080318F80AF807F20AC72B770836
:1007C000F9007808FA00FB01FC010310FA0CF90C9F
:1007D0000310FA0CF90C0310FA0CF90C0310FA0CC4
:1007E000790CF3007A08F4007B08F5007C08F60029
:1007F0007308F9007408FA007508FB007608FC001D
:1008000088308316A0001330A100A201A301EF21BC
:100810002708FD002808FE002908A4002A08A500D2
:100820007D08F3007E08F4002408F5002508F60092
:100830007308F9007408FA007508FB007608FC00DC
:100840000030A0000430A100A201A3013D2228082D
:10085000F3002908F4002A08F5002B08F60083129B
:10086000DE08031D872C7308F9007408FA00750868
:10087000FB007608FC0009308316A000A101A2014C
:10088000A301EF212708FD002808FE002908A40085
:100890002A08A5007D08F3007E08F4002408F5006E
:1008A0002508F6007308F9007408FA007508FB00C3
:1008B0007608FC003230A000A101A201A3013D2274
:1008C0002808F3002908F4002A08F5002B08F60090
:1008D0002030F9007308F9077908F3000030F900B7
:1008E00074080318740FF9077908F4000030F90050
:1008F00075080318750FF9077908F5000030F9003D
:1009000076080318760FF9077908F6009E2C73080D
:10091000F9007408FA007508FB007608FC000A303C
:100920008316A000A101A201A3013D222808F30023
:100930002908F4002A08F5002B08F6007308F900CE
:100940007408FA000800710AF600B9217708F2006D
:100950007108F600B9217708F3007208F4007308F3
:10096000F5007408F6007508F700080010308316CB
:1009700003139B00831285011030831685008312B8
:10098000C301A701A801AB01AC0183308316860027
:10099000811383128601C5218030FA000130FB00EB
:1009A000BB202030F000F200F7002630F100463086
:1009B000ED005230F3005330E8006130EA00F500FA
:1009C0006B30EC006E30EF00F6007030E9007230F2
:1009D000EB007530EE007930F400F8010030E700EC
:1009E0006830E6007B21C030FA000130FB00BB20FC
:1009F0002030E800F100F600F7002E30F40030302F
:100A0000F5003130F3004630ED004F30E90065303D
:100A1000EB006C30EE006E30EC006F30EF007630A3
:100A2000EA00F2007730F000F8010030E7006830AB
:100A3000E6007B2108308600D030E3000730E40078
:100A40001C20860124308316980090308312980071
:100A50003330831699005030F600B921770803131C
:100A6000E2005130F600B92177080313DE0052305E
:100A7000F600B92177080313DF005330F600B921DF
:100A800077080313E0005430F600B9217708031308
:100A9000E1000800F201F501F6016B08F3006C08B3
:100AA000F400721A08006D1C5B2D7308F5077408BA
:100AB0000318740FF6070310EE0CED0C0310F30D82
:100AC000F40DF20A512DF201F401F301F3190800BB
:100AD0000310F40DE90DF20D6A087202031C722D69
:100AE000F2007414F30A662D7030831603138F001E
:100AF000B624101690168B170B17013083168C0036
:100B0000831290109E308F0057308E000130FA0013
:100B1000FB00BB2083308316860083121014D8019B
:100B20001430D9000130DB00D4016E30D200D30183
:100B3000D501D6012708C1002808C200861FAB2DA9
:100B4000061CAB2D861CAB2D0130D4006E30D200BC
:100B50003230FD0010200618C62D5403031DC62D8B
:100B60007530D200D4010618C42D02304107E600CA
:100B70004208E7000318E70A67082802031DC22D90
:100B800066082702031CB32D0130D3008618E12D1F
:100B90005403031DE12D6430D200D4018618DF2DEB
:100BA00002304107E6004208E7000318E70A670839
:100BB0002802031DDD2D66082702031CCE2D0130FF
:100BC000D300861BFC2D5403031DFC2D7330D20073
:100BD000D401861BFA2D02304107E6004208E700E7
:100BE0000318E70A67082802031DF82D6608270284
:100BF000031CE92D0130D30002304107E300420815
:100C0000E4000318E40A64082802031D092E63089F
:100C10002702031C0D2E0130D5005D03031D672E36
:100C2000DD012708E6002808E70017233F08E60053
:100C30004008E7001723B92379088312E6007A08F1
:100C4000E70017232D08AF002E08B000B92379085C
:100C50008312AD007A08AE00CC080319332E313070
:100C6000E8007621362E3030E80076210D30E8009D
:100C700076210A30E80076214B03031D482EB92364
:100C800079088312EA007A08EB000C30EC0042216C
:100C90004A03031D562E2708EA002808EB000230FD
:100CA000EC004221AB0A0319AC0A5D2ECA08031DF1
:100CB0005D2E2908A7002A08A8004C03031D652EF5
:100CC00006165F0303198615672E0612861158084B
:100CD000003A0319832E013A0319692F033A8A1542
:100CE00003194E28013A0319E828073A0319E8289E
:100CF000093A0319762B033A0319762B0B3A031999
:100D0000ED2C8A11972DD9080319C82E0130FA004D
:100D1000FB00BB204D30E8006F30E9006430EA0092
:100D20006530EB003A30EC00ED010030E700683050
:100D3000E6007B21C030FA000130FB00BB202030F0
:100D4000EA00EB00ED00EE00F000F1002F30F400BF
:100D50004D30E800E9004E30F2005330F5006530C8
:100D6000F6006C30F7007830EC00EF00F300F8018B
:100D70000030E7006830E6007B21D9015B03DA0030
:100D80000130D3007330D200D501E601E701AD2375
:100D90005303031D972D5208733A031D972D5503D6
:100DA000031DD52E5A08D800972DDA0A5A08DB0001
:100DB0008730FA000130FB00BB205A08063A031DB9
:100DC000E32E0130DA005A08013A0319F42E033AEF
:100DD00003190A2F013A0319232F073A03193B2F4E
:100DE000013A0319532F972D2030E800E900EA005B
:100DF0004D30EB006130EC00EF006C30F0006E30F5
:100E0000ED007530EE00F1010030E7006830E600DB
:100E10007B21972D5330E8006530E9006D30EA0002
:100E20006930EB002D30EC004130ED007530EE0004
:100E30007430EF006F30F000F1010030E7006830EF
:100E4000E6007B21972D2030EF003130F00050304C
:100E5000E8006130ED006730EB006D30EE006F3080
:100E6000EA007230E900EC00F1010030E700683080
:100E7000E6007B21972D2030EF003230F00050301B
:100E8000E8006130ED006730EB006D30EE006F3050
:100E9000EA007230E900EC00F1010030E700683050
:100EA000E6007B21972D2030E800E900EA00EB0006
:100EB0005330EC006530ED007430EE007530EF001B
:100EC0007030F000F1010030E7006830E6007B216F
:100ED000972D59030319B72F8030FA000130FB001A
:100EE000BB202030E800E900EA00EB00EE00EF0054
:100EF000F000F100F200F3003030EC00F400F500F7
:100F0000F6007330ED00F7010030E7006830E600CE
:100F10007B213223C030FA000130FB00BB2020309F
:100F2000EA00EE00F300F4002D30F0002F30EC006A
:100F3000F5004130E9004530F6004D30E800523010
:100F4000EB00ED00EF006E30F2006F30F100783012
:100F5000F700F8010030E7006830E6007B2101303F
:100F6000D900E6010130E700AD23BF01C001530302
:100F7000031D972D5208753A0319C72F113A03190B
:100F8000F72F173A8A15031949288A11972D550307
:100F9000031DCD2F1430D900972DCA08031DE42F4F
:100FA0002908A7002A08A800C330FA000130FB0076
:100FB000BB205330E800E9010030E7006830E6006C
:100FC0007B210130CA00972D2708A9002808AA0014
:100FD000C330FA000130FB00BB205230E800E901C9
:100FE0000030E7006830E6007B21CA01972DCC086D
:100FF0008A15031D24280130CC00C930FA000130C5
:10100000FB008A11BB206F30E8006630E900EA007F
:10101000EB010030E7006830E6007B218730FA0002
:101020000130FB00BB205230E8004530E9004C3075
:10103000EA004130EB005930EC00ED010030E700F0
:101040006830E6007B21972DCC01C930FA000130D1
:10105000FB008A11BB206F30E8006E30E9002030C1
:10106000EA00EB010030E7006830E6007B218730C2
:10107000FA000130FB00BB202030E800E900EA0064
:10108000EB00EC00ED010030E7006830E6007B216A
:10109000972D55030319D8018A11972D5908023A43
:1010A0000319AC288030FA000130FB008A11BB2004
:1010B0002030E800E900EA00EB00EC00ED00EE0073
:1010C0003030EF00F000F100F2010030E70068304E
:1010D000E6007B2132232030E8003030E900EA00CE
:1010E000EB00EC010030E7006830E6007B213223A2
:1010F000C030FA000130FB00BB202030EA00EE00D7
:10110000F200F300F4002F30EC00F000F500413065
:10111000E9004430EF00F1004530F6005330E800BC
:101120005530EB00ED007830F700F8010030E700B3
:101130006830E6007B21B92379088312EA007A0837
:10114000EB000C30EC0042210230D900E601013006
:10115000E700AD23BF01C00153038A15031DCE284C
:101160005208753A0319BB28113A0319BB28173ADC
:101170000319CB28CE283F08E6004008E7005208B4
:10118000E8000730E9008A1176226A08BF006B0880
:10119000C0008A15CE2855030319D8013F08EA007C
:1011A0004008EB000730EC008A114221B92383127A
:1011B00040087A028A15031DDF283F0879020318C8
:1011C000E5280130CC008A11972DCC018A11972D8A
:1011D0005908033A0319B1295908043A0319B129E6
:1011E0008030FA000130FB008A11BB202030E9007A
:1011F000EE003030E800EA00EB00EC00EF00F00019
:10120000F1007330ED00F2010030E7006830E600D5
:101210007B2132232030E8003030E900EA00EB0087
:10122000EC010030E7006830E6007B213223C0305B
:10123000FA000130FB00BB202030EA00EE00F20093
:101240002F30EC00F5003130E9004530F300F600B6
:101250004A30EF005030E8005230EB00ED006430CF
:10126000F4006D30F0007030F1007830F700F801D4
:101270000030E7006830E6007B215808033A8A1501
:10128000031D67292030EA00EE00F2002F30EC0049
:10129000F5003130E9004530F300F6004A30EF0048
:1012A0005030E8005230EB00ED006430F4006D3057
:1012B000F0007030F1007830F700F8010030E700FE
:1012C0006830E6008A117B210330D900CD0158082F
:1012D000043A8A15031D7E29C130FA000130FB0053
:1012E0008A11BB203230E800E9010030E7006830A5
:1012F000E6007B210430D9002830CD00E601013022
:10130000E7008A11AD23C8014D08C4004408F1006C
:10131000A32476080313B9007708BA00AB01AC0127
:1013200002304407F100A32476080313BB007708BA
:10133000BC003908EA003A08EB000230EC00422118
:101340003B08EA003C08EB000730EC004221263065
:10135000BD00BE01DE088A15031DB1296430BD0041
:10136000BE014A03031DC62A2C083A02031DBA29EE
:101370002B0839020318F829C80AAB01AC01480848
:10138000E900EA010310E90DEA0D0310E90DEA0D89
:101390004D086907C4004408F1008A11A3247608A7
:1013A0000313B9007708BA003B08BD003C08BE0033
:1013B00002304407F100A32476080313BB0077082A
:1013C000BC008030FA000130FB00BB204808ED0073
:1013D00025217008FA00FB01BB20B9088A15031DFE
:1013E000F829BA08031DF829CA01CC011430D90024
:1013F0003908E9003A08EA002B08EB002C08EC0059
:101400003D08ED003E08EE003B08EF003C08F00010
:101410008A1151237308BF007408C0003F08EA0016
:101420004008EB000730EC0042216208E6000310A0
:10143000660C2B07E7002C08E8000318E80A680888
:101440003A028A15031D262A67083902031C462A18
:101450003908E9003A08EA006208F1000310710C4B
:101460002B07EB002C08EC000318EC0A3D08ED00FC
:101470003E08EE003B08EF003C08F0008A115123C3
:101480007308B5007408B6008A15752A043044073D
:10149000F1008A11A32476080313E9007708EA0013
:1014A0006208F3000310F30C2B083902F1002C0A38
:1014B00003182C083A02F20071087302EB0072095B
:1014C000EC000318EC0A3B08ED003C08EE00063087
:1014D0004407F100A32476080313EF007708F00017
:1014E00051237308B5007408B6008A11B92383121A
:1014F0006208E9000630EA0063257408EB002F0853
:101500002D02ED00300A031830082E02EE00EC0127
:101510004A257508EF007608F1006F087907F0009A
:101520007A080318F10AF1077008B3007108B400D3
:10153000B92383123F087902EA00400A03184008E1
:101540007A02EB0035083302E900360A0318360840
:101550003402ED0069086A07EC006B080318ED0A15
:10156000ED076C08B7006D08B8008030E900380856
:10157000803A69023708B8080319003C8A15031C31
:10158000C42A0130CC00CA2ACC01CA2A2908A700E3
:101590002A08A80053038A11031D972D5208753A93
:1015A0008A150319DB2A113A03190F2B173A03196D
:1015B0006A2B8A11972D5503031DE22A1430D90096
:1015C0008A11972DCA08031DFA2A2908A7002A089C
:1015D000A800C330FA000130FB008A11BB20533051
:1015E000E800E9010030E7006830E6007B210130C7
:1015F000CA00972D2708A9002808AA00C330FA00BE
:101600000130FB008A11BB205230E800E9010030B4
:10161000E7006830E6007B21CA01CC01972DA901C3
:10162000AA01A701A801C330FA000130FB008A110A
:10163000BB205230E800E9010030E7006830E600E6
:101640007B21CC01CA01C80A4808E600E701031063
:10165000E60DE70D0310E60DE70D4D086607C40023
:101660004408F100A32476080313B9007708BA00F0
:10167000B9088A15031D412BBA08031D412B1430EC
:10168000D9003B08BD003C08BE0002304407F10011
:101690008A11A32476080313BB007708BC0039081D
:1016A000EA003A08EB000230EC0042213B08EA0075
:1016B0003C08EB000730EC0042218030FA0001309A
:1016C000FB00BB204808ED0025217008FA00FB0153
:1016D000BB20972D5808D9005503031D722BD80144
:1016E0008A11972D0A30D8078A11972D59080D3A7B
:1016F0000319FF2B59080E3A0319FF2BC030FA00CB
:101700000130FB008A11BB202030EA00EE00F2001D
:101710002F30EC00F000F5003130E9004430EF00EC
:10172000F1004530E800F6004E30F3005530EB0094
:10173000ED007830F400F700F8010030E700683081
:10174000E6007B2158080D3A8A15031DAA2B0D309F
:10175000D900CD0158080E3A031DC22BC130FA0042
:101760000130FB008A11BB203230E8002030E90054
:10177000EA010030E7006830E6007B210E30D90036
:101780002830CD00E601E7018A11AD23C8014D08DC
:10179000C4004408F100A32476080313B9007708B5
:1017A000BA0002304407F100A32476080313BB00FB
:1017B0007708BC008030FA000130FB00BB204808ED
:1017C000ED0025217008FA00FB01BB203908EA0072
:1017D0003A08EB000230EC0042213B08EA003C08EA
:1017E000EB000730EC0042218030FA000130FB00B2
:1017F000BB200F30FA000130FB00BB20CE015303A9
:101800008A11031D972D4E08003A8A1503190F2CD3
:10181000053A0319632C0F3A03198F2CBE2C480884
:10182000E6005208E7008A1195236808C8004808B6
:10183000E600E7010310E60DE70D0310E60DE70DE6
:101840004D086607C4004408F100A324760803137A
:10185000B9007708BA00B9088A15031D332CBA08F5
:10186000031D332CC80102304407F1008A11A32460
:1018700076080313BB007708BC003908EA003A0871
:10188000EB000230EC0042213B08EA003C08EB0090
:101890000730EC0042218030FA000130FB00BB2011
:1018A0004808ED0025217008FA00FB01BB208030BC
:1018B000FA000130FB00BB200F30FA000130FB00C2
:1018C000BB208A15BE2C5208753A03196B2C52089E
:1018D000643A031D792C3908E6003A08E7005208FB
:1018E000E8000230E9008A1176226A08B9006B0824
:1018F000BA004808E600E7010310E60DE70D031003
:10190000E60DE70D4D086607C4004408E6003908F7
:10191000E7003A08E8008A1141238A15BE2C5208D4
:10192000753A0319972C5208643A031DA52C3B08FD
:10193000E6003C08E7005208E8000730E9008A1199
:1019400076226A08BB006B08BC004808E600E80184
:101950000310E60DE80D0310E60DE80D4D086607CF
:10196000E7000318E80A02306707C4004408E600ED
:101970003B08E7003C08E8008A1141235208733A0B
:101980008A11031D972D55038A15031DD22C580863
:10199000D9000A30D8020C30FA000130FB008A115D
:1019A000BB20972D4E08053A031DD92C0A30CE00D6
:1019B000E02CCE08031DDF2C0530CE00E02CCE013C
:1019C0004E08803EFA000130FB008A11BB200F3028
:1019D000FA000130FB00BB20972D5908053A031986
:1019E000212DC030FA000130FB008A11BB202030CD
:1019F000EA00ED00EE00F100F2002F30F500443077
:101A0000EF004530F6004E30F3005330E80055301B
:101A1000E900EB006E30F0007030EC007830F4003C
:101A2000F700F8010030E7006830E6007B21053060
:101A3000D900E601E701AD230130DC00D3006E30B0
:101A4000D20053038A11031D972D5208733A8A1549
:101A50000319312D173A03193E2D113A03193E2D62
:101A6000842D5503031D362DD801842DDC0A5C0816
:101A7000063A031D842D0130DC00842D5C084F3EA6
:101A8000C4004408F6008A11B92177080313E50061
:101A90005C038A15031D5B2D5208753A0319E50A8C
:101AA0005208643A0319E5036508EA00EB010C30BB
:101AB000EC008A1142215C08023A8A150319642D50
:101AC0005C08033A031D6E2D6503031D692DE501B6
:101AD0006E2DE508031D6E2D0130E5005C08043A0B
:101AE0000319762D5C08053A031D7E2D6508E60076
:101AF0005208E7008A1195236808E5006508EA00A6
:101B00004408EB008A1191215C084F3EC400440850
:101B1000F6008A11B92177080313E5008030FA0036
:101B20000130FB00BB205C08013A8A150319A62D81
:101B3000033A0319D12D013A0319FB2D073A031972
:101B4000412E013A0319822E8A11972D6508E20071
:101B50002030EC00F200F400F500F6003D30F30018
:101B60004330ED005430E8006530EB006930E900A7
:101B70006D30EA006E30EF006F30EE007330F00031
:101B8000F7007430F100F8010030E7006830E6003B
:101B90008A117B216508EA00EB010C30EC00422140
:101BA000972D6508DE002030EC00F200F300F50010
:101BB000F6003D30F4005430E8005530ED0065305B
:101BC000E9006930EF006D30EA006E30EE007030F1
:101BD000EB007330F1007430F000F7010030E700E3
:101BE0006830E6008A117B218F30FA000130FB005B
:101BF000BB203223972D6508DF002030ED00F10077
:101C0000F2003D30F3004430F0004530EF004C303E
:101C1000EE005230E8006130EB006530E9006C30D6
:101C2000EA007930EC00F4010030E7006830E600AB
:101C30008A117B218C30FA000130FB00BB20650348
:101C40008A15031D322E2030E800EB004E30EA00EA
:101C50004F30E900EC010030E7006830E6008A11FF
:101C60007B21972D2030E8004F30E9004630EA0014
:101C7000EB00EC010030E7006830E6008A117B21C0
:101C8000972D6508E0002030EE00F300F500F60027
:101C9000F7002F30EA003D30F4004930EF005430B7
:101CA000E8006330F1006D30E900EC006E30F000C8
:101CB0007030ED007230F2007430EB00F80100304B
:101CC000E7006830E6008A117B218E30FA0001308F
:101CD000FB00BB206508093A8A15031D792E3130B7
:101CE000FA00FB018A11BB203030FA00FB01BB2057
:101CF000972D650AED008A1125217008FA00FB0175
:101D0000BB20972D6508E1002030ED00F100F200C6
:101D1000F400F500F600F7003D30F3004330E80032
:101D20006130EF006330EB00EE006B30EC006C30A4
:101D3000E900F0006F30EA00F8010030E700683099
:101D4000E6008A117B218E30FA000130FB00BB20B7
:101D50006508093A8A15031DB72E3130FA00FB01D8
:101D60008A11BB203030FA00FB01BB20972D650A99
:101D7000ED008A1125217008FA00FB01BB20972D88
:101D800083120313C501AD01AE01AF01B001B10172
:101D9000B201B301B401B501B601BF01C001CA016E
:101DA000CB01CC01C101C201D601D701DD01D53083
:101DB000A000C430A100BB30A200DC30A3008A1117
:101DC0000A12742D8A1135208A150C1C112F10103F
:101DD0009E308F0061088316AC001430AD008A116C
:101DE00047203308AE003408AF002E08573E831258
:101DF0008E00C30A43080A3A8A15031D052FC30142
:101E0000A70A0319A80A0130DD0003302802031DC8
:101E10000B2FE7302702031C0F2FA701A8010C107E
:101E200010148A113F20260E8400250E8A00240EED
:081E30008300FF0E7F0E090084
:02400E00303F41
:1042000000000F000000280000005A000000960087
:1042100000005A000000B40000001E000000D7009B
:1042200000003C000000960000000500000028008F
:104230000000050000002800000005000000280024
:104240000000050000002800000005000000280014
:10425000000000000000000000000000000000005E
:10426000000000000000000000000000000000004E
:10427000000000000000000000000000000000003E
:10428000000000000000000000000000000000002E
:10429000000000000000000000000000000000001E
:1042A00014000100010004000400000000000000F0
:1042B00000000000000000000000000000000000FE
:0842C0000000000000000000F6
:00000001FF
